{
  "_format": "hh-sol-artifact-1",
  "contractName": "GameEngine",
  "sourceName": "contracts/GameEngine.sol",
  "abi": [
    {
      "inputs": [],
      "stateMutability": "nonpayable",
      "type": "constructor"
    },
    {
      "anonymous": false,
      "inputs": [
        {
          "indexed": true,
          "internalType": "address",
          "name": "player",
          "type": "address"
        },
        {
          "indexed": true,
          "internalType": "uint256",
          "name": "worldId",
          "type": "uint256"
        },
        {
          "indexed": false,
          "internalType": "uint8",
          "name": "x",
          "type": "uint8"
        },
        {
          "indexed": false,
          "internalType": "uint8",
          "name": "y",
          "type": "uint8"
        },
        {
          "indexed": false,
          "internalType": "uint256",
          "name": "price",
          "type": "uint256"
        }
      ],
      "name": "PlotPurchased",
      "type": "event"
    },
    {
      "anonymous": false,
      "inputs": [
        {
          "indexed": true,
          "internalType": "address",
          "name": "player",
          "type": "address"
        },
        {
          "indexed": true,
          "internalType": "uint256",
          "name": "worldId",
          "type": "uint256"
        },
        {
          "indexed": false,
          "internalType": "uint256",
          "name": "timestamp",
          "type": "uint256"
        }
      ],
      "name": "WorldJoined",
      "type": "event"
    },
    {
      "inputs": [],
      "name": "BASE_PRICE",
      "outputs": [
        {
          "internalType": "uint256",
          "name": "",
          "type": "uint256"
        }
      ],
      "stateMutability": "view",
      "type": "function"
    },
    {
      "inputs": [],
      "name": "GRID_SIZE",
      "outputs": [
        {
          "internalType": "uint8",
          "name": "",
          "type": "uint8"
        }
      ],
      "stateMutability": "view",
      "type": "function"
    },
    {
      "inputs": [],
      "name": "JOIN_FEE",
      "outputs": [
        {
          "internalType": "uint256",
          "name": "",
          "type": "uint256"
        }
      ],
      "stateMutability": "view",
      "type": "function"
    },
    {
      "inputs": [],
      "name": "STARTING_RESOURCE",
      "outputs": [
        {
          "internalType": "uint256",
          "name": "",
          "type": "uint256"
        }
      ],
      "stateMutability": "view",
      "type": "function"
    },
    {
      "inputs": [
        {
          "internalType": "uint256",
          "name": "worldId",
          "type": "uint256"
        },
        {
          "internalType": "address",
          "name": "player",
          "type": "address"
        },
        {
          "internalType": "uint8",
          "name": "x",
          "type": "uint8"
        },
        {
          "internalType": "uint8",
          "name": "y",
          "type": "uint8"
        }
      ],
      "name": "buyPlot",
      "outputs": [],
      "stateMutability": "nonpayable",
      "type": "function"
    },
    {
      "inputs": [],
      "name": "gasTreasury",
      "outputs": [
        {
          "internalType": "address",
          "name": "",
          "type": "address"
        }
      ],
      "stateMutability": "view",
      "type": "function"
    },
    {
      "inputs": [
        {
          "internalType": "uint256",
          "name": "worldId",
          "type": "uint256"
        }
      ],
      "name": "getAllPlotOwners",
      "outputs": [
        {
          "internalType": "address[100]",
          "name": "",
          "type": "address[100]"
        }
      ],
      "stateMutability": "view",
      "type": "function"
    },
    {
      "inputs": [
        {
          "internalType": "uint256",
          "name": "worldId",
          "type": "uint256"
        },
        {
          "internalType": "address",
          "name": "player",
          "type": "address"
        }
      ],
      "name": "getPlayerResources",
      "outputs": [
        {
          "internalType": "uint256[5]",
          "name": "",
          "type": "uint256[5]"
        }
      ],
      "stateMutability": "view",
      "type": "function"
    },
    {
      "inputs": [
        {
          "internalType": "uint256",
          "name": "worldId",
          "type": "uint256"
        },
        {
          "internalType": "uint8",
          "name": "x",
          "type": "uint8"
        },
        {
          "internalType": "uint8",
          "name": "y",
          "type": "uint8"
        }
      ],
      "name": "getPlotOwner",
      "outputs": [
        {
          "internalType": "address",
          "name": "",
          "type": "address"
        }
      ],
      "stateMutability": "view",
      "type": "function"
    },
    {
      "inputs": [
        {
          "internalType": "uint256",
          "name": "worldId",
          "type": "uint256"
        },
        {
          "internalType": "address",
          "name": "player",
          "type": "address"
        }
      ],
      "name": "getPlotPrice",
      "outputs": [
        {
          "internalType": "uint256",
          "name": "",
          "type": "uint256"
        }
      ],
      "stateMutability": "view",
      "type": "function"
    },
    {
      "inputs": [
        {
          "internalType": "address",
          "name": "player",
          "type": "address"
        },
        {
          "internalType": "uint256",
          "name": "worldId",
          "type": "uint256"
        }
      ],
      "name": "hasJoined",
      "outputs": [
        {
          "internalType": "bool",
          "name": "",
          "type": "bool"
        }
      ],
      "stateMutability": "view",
      "type": "function"
    },
    {
      "inputs": [
        {
          "internalType": "uint256",
          "name": "worldId",
          "type": "uint256"
        }
      ],
      "name": "joinWorld",
      "outputs": [],
      "stateMutability": "payable",
      "type": "function"
    },
    {
      "inputs": [],
      "name": "owner",
      "outputs": [
        {
          "internalType": "address",
          "name": "",
          "type": "address"
        }
      ],
      "stateMutability": "view",
      "type": "function"
    },
    {
      "inputs": [],
      "name": "pauseGame",
      "outputs": [],
      "stateMutability": "nonpayable",
      "type": "function"
    },
    {
      "inputs": [],
      "name": "paused",
      "outputs": [
        {
          "internalType": "bool",
          "name": "",
          "type": "bool"
        }
      ],
      "stateMutability": "view",
      "type": "function"
    },
    {
      "inputs": [],
      "name": "resumeGame",
      "outputs": [],
      "stateMutability": "nonpayable",
      "type": "function"
    },
    {
      "inputs": [
        {
          "internalType": "address",
          "name": "_gasTreasury",
          "type": "address"
        }
      ],
      "name": "setGasTreasury",
      "outputs": [],
      "stateMutability": "nonpayable",
      "type": "function"
    },
    {
      "inputs": [],
      "name": "withdraw",
      "outputs": [],
      "stateMutability": "nonpayable",
      "type": "function"
    },
    {
      "inputs": [
        {
          "internalType": "uint256",
          "name": "",
          "type": "uint256"
        },
        {
          "internalType": "uint8",
          "name": "",
          "type": "uint8"
        },
        {
          "internalType": "uint8",
          "name": "",
          "type": "uint8"
        }
      ],
      "name": "worldPlots",
      "outputs": [
        {
          "internalType": "address",
          "name": "owner",
          "type": "address"
        },
        {
          "internalType": "uint8",
          "name": "x",
          "type": "uint8"
        },
        {
          "internalType": "uint8",
          "name": "y",
          "type": "uint8"
        }
      ],
      "stateMutability": "view",
      "type": "function"
    }
  ],
  "bytecode": "0x60806040526000600160146101000a81548160ff02191690831515021790555034801561002b57600080fd5b50336000806101000a81548173ffffffffffffffffffffffffffffffffffffffff021916908373ffffffffffffffffffffffffffffffffffffffff16021790555033600160006101000a81548173ffffffffffffffffffffffffffffffffffffffff021916908373ffffffffffffffffffffffffffffffffffffffff160217905550612211806100bc6000396000f3fe6080604052600436106101145760003560e01c80638f3516aa116100a0578063ba697cc511610064578063ba697cc514610370578063c0b226dc146103ad578063c78f4172146103d8578063d4f734ff14610401578063f86325ed1461043e57610114565b80638f3516aa14610261578063a2dc525c1461028c578063a5272d9b146102c9578063a9d0ddf414610308578063b1a11fa91461034557610114565b8063499831f2116100e7578063499831f21461018c57806357ac540c146101a35780635c975abb146101e05780637fc4eda81461020b5780638da5cb5b1461023657610114565b80631875548c14610119578063368a4979146101425780633cc4c6ce1461015e5780633ccfd60b14610175575b600080fd5b34801561012557600080fd5b50610140600480360381019061013b919061149f565b610469565b005b61015c60048036038101906101579190611502565b61053b565b005b34801561016a57600080fd5b5061017361077c565b005b34801561018157600080fd5b5061018a610827565b005b34801561019857600080fd5b506101a16109ce565b005b3480156101af57600080fd5b506101ca60048036038101906101c59190611502565b610a78565b6040516101d791906115da565b60405180910390f35b3480156101ec57600080fd5b506101f5610b9a565b6040516102029190611611565b60405180910390f35b34801561021757600080fd5b50610220610bad565b60405161022d9190611648565b60405180910390f35b34801561024257600080fd5b5061024b610bb2565b6040516102589190611672565b60405180910390f35b34801561026d57600080fd5b50610276610bd6565b6040516102839190611672565b60405180910390f35b34801561029857600080fd5b506102b360048036038101906102ae919061168d565b610bfc565b6040516102c09190611778565b60405180910390f35b3480156102d557600080fd5b506102f060048036038101906102eb91906117bf565b610d04565b6040516102ff93929190611812565b60405180910390f35b34801561031457600080fd5b5061032f600480360381019061032a9190611849565b610d82565b60405161033c9190611611565b60405180910390f35b34801561035157600080fd5b5061035a610ded565b6040516103679190611898565b60405180910390f35b34801561037c57600080fd5b506103976004803603810190610392919061168d565b610df3565b6040516103a49190611898565b60405180910390f35b3480156103b957600080fd5b506103c2610e89565b6040516103cf9190611898565b60405180910390f35b3480156103e457600080fd5b506103ff60048036038101906103fa91906118b3565b610e95565b005b34801561040d57600080fd5b50610428600480360381019061042391906117bf565b611382565b6040516104359190611672565b60405180910390f35b34801561044a57600080fd5b506104536113f2565b6040516104609190611898565b60405180910390f35b60008054906101000a900473ffffffffffffffffffffffffffffffffffffffff1673ffffffffffffffffffffffffffffffffffffffff163373ffffffffffffffffffffffffffffffffffffffff16146104f7576040517f08c379a00000000000000000000000000000000000000000000000000000000081526004016104ee90611977565b60405180910390fd5b80600160006101000a81548173ffffffffffffffffffffffffffffffffffffffff021916908373ffffffffffffffffffffffffffffffffffffffff16021790555050565b600160149054906101000a900460ff161561058b576040517f08c379a0000000000000000000000000000000000000000000000000000000008152600401610582906119e3565b60405180910390fd5b600081116105ce576040517f08c379a00000000000000000000000000000000000000000000000000000000081526004016105c590611a4f565b60405180910390fd5b6000600260003373ffffffffffffffffffffffffffffffffffffffff1673ffffffffffffffffffffffffffffffffffffffff168152602001908152602001600020600083815260200190815260200160002090508060000160009054906101000a900460ff1615610674576040517f08c379a000000000000000000000000000000000000000000000000000000000815260040161066b90611abb565b60405180910390fd5b678ac7230489e8000034146106be576040517f08c379a00000000000000000000000000000000000000000000000000000000081526004016106b590611b27565b60405180910390fd5b60018160000160006101000a81548160ff02191690831515021790555042816001018190555060005b60058160ff161015610728576127108260030160008360ff1660ff16815260200190815260200160002081905550808061072090611b76565b9150506106e7565b50813373ffffffffffffffffffffffffffffffffffffffff167fdbfef52a5efebb3247a24935b743e9372a6b80fbcb6da03ee45133b0ce7a520d426040516107709190611898565b60405180910390a35050565b60008054906101000a900473ffffffffffffffffffffffffffffffffffffffff1673ffffffffffffffffffffffffffffffffffffffff163373ffffffffffffffffffffffffffffffffffffffff161461080a576040517f08c379a000000000000000000000000000000000000000000000000000000000815260040161080190611977565b60405180910390fd5b6000600160146101000a81548160ff021916908315150217905550565b60008054906101000a900473ffffffffffffffffffffffffffffffffffffffff1673ffffffffffffffffffffffffffffffffffffffff163373ffffffffffffffffffffffffffffffffffffffff16146108b5576040517f08c379a00000000000000000000000000000000000000000000000000000000081526004016108ac90611977565b60405180910390fd5b6000479050600081116108fd576040517f08c379a00000000000000000000000000000000000000000000000000000000081526004016108f490611beb565b60405180910390fd5b60008060009054906101000a900473ffffffffffffffffffffffffffffffffffffffff1673ffffffffffffffffffffffffffffffffffffffff168260405161094490611c3c565b60006040518083038185875af1925050503d8060008114610981576040519150601f19603f3d011682016040523d82523d6000602084013e610986565b606091505b50509050806109ca576040517f08c379a00000000000000000000000000000000000000000000000000000000081526004016109c190611c9d565b60405180910390fd5b5050565b60008054906101000a900473ffffffffffffffffffffffffffffffffffffffff1673ffffffffffffffffffffffffffffffffffffffff163373ffffffffffffffffffffffffffffffffffffffff1614610a5c576040517f08c379a0000000000000000000000000000000000000000000000000000000008152600401610a5390611977565b60405180910390fd5b60018060146101000a81548160ff021916908315150217905550565b610a806113f7565b610a886113f7565b6000805b600a60ff168160ff161015610b8f5760005b600a60ff168160ff161015610b7b576003600087815260200190815260200160002060008360ff1660ff16815260200190815260200160002060008260ff1660ff16815260200190815260200160002060000160009054906101000a900473ffffffffffffffffffffffffffffffffffffffff16848480610b1e90611cbd565b955060648110610b3157610b30611d05565b5b602002019073ffffffffffffffffffffffffffffffffffffffff16908173ffffffffffffffffffffffffffffffffffffffff16815250508080610b7390611b76565b915050610a9e565b508080610b8790611b76565b915050610a8c565b508192505050919050565b600160149054906101000a900460ff1681565b600a81565b60008054906101000a900473ffffffffffffffffffffffffffffffffffffffff1681565b600160009054906101000a900473ffffffffffffffffffffffffffffffffffffffff1681565b610c0461141a565b6000600260008473ffffffffffffffffffffffffffffffffffffffff1673ffffffffffffffffffffffffffffffffffffffff168152602001908152602001600020600085815260200190815260200160002090506040518060a001604052808260030160008060ff168152602001908152602001600020548152602001826003016000600160ff168152602001908152602001600020548152602001826003016000600260ff168152602001908152602001600020548152602001826003016000600360ff168152602001908152602001600020548152602001826003016000600460ff1681526020019081526020016000205481525091505092915050565b600360205282600052604060002060205281600052604060002060205280600052604060002060009250925050508060000160009054906101000a900473ffffffffffffffffffffffffffffffffffffffff16908060000160149054906101000a900460ff16908060000160159054906101000a900460ff16905083565b6000600260008473ffffffffffffffffffffffffffffffffffffffff1673ffffffffffffffffffffffffffffffffffffffff168152602001908152602001600020600083815260200190815260200160002060000160009054906101000a900460ff16905092915050565b61271081565b600080600260008473ffffffffffffffffffffffffffffffffffffffff1673ffffffffffffffffffffffffffffffffffffffff168152602001908152602001600020600085815260200190815260200160002090508060020154600a610e599190611e67565b8160020154600f610e6a9190611e67565b6064610e769190611eb2565b610e809190611f23565b91505092915050565b678ac7230489e8000081565b600160149054906101000a900460ff1615610ee5576040517f08c379a0000000000000000000000000000000000000000000000000000000008152600401610edc906119e3565b60405180910390fd5b600160009054906101000a900473ffffffffffffffffffffffffffffffffffffffff1673ffffffffffffffffffffffffffffffffffffffff163373ffffffffffffffffffffffffffffffffffffffff1614610f75576040517f08c379a0000000000000000000000000000000000000000000000000000000008152600401610f6c90611fa0565b60405180910390fd5b600a60ff168260ff16108015610f915750600a60ff168160ff16105b610fd0576040517f08c379a0000000000000000000000000000000000000000000000000000000008152600401610fc79061200c565b60405180910390fd5b6000600260008573ffffffffffffffffffffffffffffffffffffffff1673ffffffffffffffffffffffffffffffffffffffff168152602001908152602001600020600086815260200190815260200160002090508060000160009054906101000a900460ff16611075576040517f08c379a000000000000000000000000000000000000000000000000000000000815260040161106c90612078565b60405180910390fd5b600073ffffffffffffffffffffffffffffffffffffffff166003600087815260200190815260200160002060008560ff1660ff16815260200190815260200160002060008460ff1660ff16815260200190815260200160002060000160009054906101000a900473ffffffffffffffffffffffffffffffffffffffff1673ffffffffffffffffffffffffffffffffffffffff1614611148576040517f08c379a000000000000000000000000000000000000000000000000000000000815260040161113f906120e4565b60405180910390fd5b60006111548686610df3565b905060005b60058160ff16101561120857818360030160008360ff1660ff1681526020019081526020016000205410156111c3576040517f08c379a00000000000000000000000000000000000000000000000000000000081526004016111ba90612150565b60405180910390fd5b818360030160008360ff1660ff16815260200190815260200160002060008282546111ee9190612170565b92505081905550808061120090611b76565b915050611159565b5060405180606001604052808673ffffffffffffffffffffffffffffffffffffffff1681526020018560ff1681526020018460ff168152506003600088815260200190815260200160002060008660ff1660ff16815260200190815260200160002060008560ff1660ff16815260200190815260200160002060008201518160000160006101000a81548173ffffffffffffffffffffffffffffffffffffffff021916908373ffffffffffffffffffffffffffffffffffffffff16021790555060208201518160000160146101000a81548160ff021916908360ff16021790555060408201518160000160156101000a81548160ff021916908360ff16021790555090505081600201600081548092919061132290611cbd565b9190505550858573ffffffffffffffffffffffffffffffffffffffff167fe6d856ee0a4e26b7e7aa306be320b1ec64b2d1c144caa7c230a6462beb0c5166868685604051611372939291906121a4565b60405180910390a3505050505050565b60006003600085815260200190815260200160002060008460ff1660ff16815260200190815260200160002060008360ff1660ff16815260200190815260200160002060000160009054906101000a900473ffffffffffffffffffffffffffffffffffffffff1690509392505050565b606481565b60405180610c800160405280606490602082028036833780820191505090505090565b6040518060a00160405280600590602082028036833780820191505090505090565b600080fd5b600073ffffffffffffffffffffffffffffffffffffffff82169050919050565b600061146c82611441565b9050919050565b61147c81611461565b811461148757600080fd5b50565b60008135905061149981611473565b92915050565b6000602082840312156114b5576114b461143c565b5b60006114c38482850161148a565b91505092915050565b6000819050919050565b6114df816114cc565b81146114ea57600080fd5b50565b6000813590506114fc816114d6565b92915050565b6000602082840312156115185761151761143c565b5b6000611526848285016114ed565b91505092915050565b600060649050919050565b600081905092915050565b6000819050919050565b61155881611461565b82525050565b600061156a838361154f565b60208301905092915050565b6000602082019050919050565b61158c8161152f565b611596818461153a565b92506115a182611545565b8060005b838110156115d25781516115b9878261155e565b96506115c483611576565b9250506001810190506115a5565b505050505050565b6000610c80820190506115f06000830184611583565b92915050565b60008115159050919050565b61160b816115f6565b82525050565b60006020820190506116266000830184611602565b92915050565b600060ff82169050919050565b6116428161162c565b82525050565b600060208201905061165d6000830184611639565b92915050565b61166c81611461565b82525050565b60006020820190506116876000830184611663565b92915050565b600080604083850312156116a4576116a361143c565b5b60006116b2858286016114ed565b92505060206116c38582860161148a565b9150509250929050565b600060059050919050565b600081905092915050565b6000819050919050565b6116f6816114cc565b82525050565b600061170883836116ed565b60208301905092915050565b6000602082019050919050565b61172a816116cd565b61173481846116d8565b925061173f826116e3565b8060005b8381101561177057815161175787826116fc565b965061176283611714565b925050600181019050611743565b505050505050565b600060a08201905061178d6000830184611721565b92915050565b61179c8161162c565b81146117a757600080fd5b50565b6000813590506117b981611793565b92915050565b6000806000606084860312156117d8576117d761143c565b5b60006117e6868287016114ed565b93505060206117f7868287016117aa565b9250506040611808868287016117aa565b9150509250925092565b60006060820190506118276000830186611663565b6118346020830185611639565b6118416040830184611639565b949350505050565b600080604083850312156118605761185f61143c565b5b600061186e8582860161148a565b925050602061187f858286016114ed565b9150509250929050565b611892816114cc565b82525050565b60006020820190506118ad6000830184611889565b92915050565b600080600080608085870312156118cd576118cc61143c565b5b60006118db878288016114ed565b94505060206118ec8782880161148a565b93505060406118fd878288016117aa565b925050606061190e878288016117aa565b91505092959194509250565b600082825260208201905092915050565b7f4e6f7420746865206f776e657200000000000000000000000000000000000000600082015250565b6000611961600d8361191a565b915061196c8261192b565b602082019050919050565b6000602082019050818103600083015261199081611954565b9050919050565b7f47616d6520697320706175736564000000000000000000000000000000000000600082015250565b60006119cd600e8361191a565b91506119d882611997565b602082019050919050565b600060208201905081810360008301526119fc816119c0565b9050919050565b7f496e76616c696420776f726c6400000000000000000000000000000000000000600082015250565b6000611a39600d8361191a565b9150611a4482611a03565b602082019050919050565b60006020820190508181036000830152611a6881611a2c565b9050919050565b7f416c7265616479206a6f696e6564000000000000000000000000000000000000600082015250565b6000611aa5600e8361191a565b9150611ab082611a6f565b602082019050919050565b60006020820190508181036000830152611ad481611a98565b9050919050565b7f4d757374207061792031302074485944524120746f206a6f696e000000000000600082015250565b6000611b11601a8361191a565b9150611b1c82611adb565b602082019050919050565b60006020820190508181036000830152611b4081611b04565b9050919050565b7f4e487b7100000000000000000000000000000000000000000000000000000000600052601160045260246000fd5b6000611b818261162c565b915060ff8203611b9457611b93611b47565b5b600182019050919050565b7f4e6f2066756e6473000000000000000000000000000000000000000000000000600082015250565b6000611bd560088361191a565b9150611be082611b9f565b602082019050919050565b60006020820190508181036000830152611c0481611bc8565b9050919050565b600081905092915050565b50565b6000611c26600083611c0b565b9150611c3182611c16565b600082019050919050565b6000611c4782611c19565b9150819050919050565b7f5769746864726177206661696c65640000000000000000000000000000000000600082015250565b6000611c87600f8361191a565b9150611c9282611c51565b602082019050919050565b60006020820190508181036000830152611cb681611c7a565b9050919050565b6000611cc8826114cc565b91507fffffffffffffffffffffffffffffffffffffffffffffffffffffffffffffffff8203611cfa57611cf9611b47565b5b600182019050919050565b7f4e487b7100000000000000000000000000000000000000000000000000000000600052603260045260246000fd5b60008160011c9050919050565b6000808291508390505b6001851115611d8b57808604811115611d6757611d66611b47565b5b6001851615611d765780820291505b8081029050611d8485611d34565b9450611d4b565b94509492505050565b600082611da45760019050611e60565b81611db25760009050611e60565b8160018114611dc85760028114611dd257611e01565b6001915050611e60565b60ff841115611de457611de3611b47565b5b8360020a915084821115611dfb57611dfa611b47565b5b50611e60565b5060208310610133831016604e8410600b8410161715611e365782820a905083811115611e3157611e30611b47565b5b611e60565b611e438484846001611d41565b92509050818404811115611e5a57611e59611b47565b5b81810290505b9392505050565b6000611e72826114cc565b9150611e7d836114cc565b9250611eaa7fffffffffffffffffffffffffffffffffffffffffffffffffffffffffffffffff8484611d94565b905092915050565b6000611ebd826114cc565b9150611ec8836114cc565b9250828202611ed6816114cc565b91508282048414831517611eed57611eec611b47565b5b5092915050565b7f4e487b7100000000000000000000000000000000000000000000000000000000600052601260045260246000fd5b6000611f2e826114cc565b9150611f39836114cc565b925082611f4957611f48611ef4565b5b828204905092915050565b7f4f6e6c79206761732074726561737572792063616e2063616c6c000000000000600082015250565b6000611f8a601a8361191a565b9150611f9582611f54565b602082019050919050565b60006020820190508181036000830152611fb981611f7d565b9050919050565b7f496e76616c696420706c6f7420636f6f72647300000000000000000000000000600082015250565b6000611ff660138361191a565b915061200182611fc0565b602082019050919050565b6000602082019050818103600083015261202581611fe9565b9050919050565b7f4e6f7420696e20776f726c640000000000000000000000000000000000000000600082015250565b6000612062600c8361191a565b915061206d8261202c565b602082019050919050565b6000602082019050818103600083015261209181612055565b9050919050565b7f416c7265616479206f776e656400000000000000000000000000000000000000600082015250565b60006120ce600d8361191a565b91506120d982612098565b602082019050919050565b600060208201905081810360008301526120fd816120c1565b9050919050565b7f4e6f7420656e6f756768207265736f7572636573000000000000000000000000600082015250565b600061213a60148361191a565b915061214582612104565b602082019050919050565b600060208201905081810360008301526121698161212d565b9050919050565b600061217b826114cc565b9150612186836114cc565b925082820390508181111561219e5761219d611b47565b5b92915050565b60006060820190506121b96000830186611639565b6121c66020830185611639565b6121d36040830184611889565b94935050505056fea26469706673582212207bd4192e307498999130932e25758b2d5b82bd8d5332dac458d8ca9c8a9e457164736f6c63430008140033",
  "linkReferences": {},
  "deployedLinkReferences": {}
}