{
  "_format": "hh-sol-artifact-1",
  "contractName": "GameRegistry",
  "sourceName": "contracts/GameRegistry.sol",
  "abi": [
    {
      "anonymous": false,
      "inputs": [
        {
          "indexed": true,
          "internalType": "address",
          "name": "player",
          "type": "address"
        },
        {
          "indexed": false,
          "internalType": "string",
          "name": "username",
          "type": "string"
        }
      ],
      "name": "PlayerRegistered",
      "type": "event"
    },
    {
      "inputs": [
        {
          "internalType": "address",
          "name": "player",
          "type": "address"
        }
      ],
      "name": "getUsername",
      "outputs": [
        {
          "internalType": "string",
          "name": "",
          "type": "string"
        }
      ],
      "stateMutability": "view",
      "type": "function"
    },
    {
      "inputs": [
        {
          "internalType": "address",
          "name": "player",
          "type": "address"
        }
      ],
      "name": "isRegistered",
      "outputs": [
        {
          "internalType": "bool",
          "name": "",
          "type": "bool"
        }
      ],
      "stateMutability": "view",
      "type": "function"
    },
    {
      "inputs": [
        {
          "internalType": "address",
          "name": "",
          "type": "address"
        }
      ],
      "name": "players",
      "outputs": [
        {
          "internalType": "string",
          "name": "username",
          "type": "string"
        },
        {
          "internalType": "bool",
          "name": "registered",
          "type": "bool"
        }
      ],
      "stateMutability": "view",
      "type": "function"
    },
    {
      "inputs": [
        {
          "internalType": "string",
          "name": "username",
          "type": "string"
        }
      ],
      "name": "register",
      "outputs": [],
      "stateMutability": "nonpayable",
      "type": "function"
    },
    {
      "inputs": [
        {
          "internalType": "string",
          "name": "",
          "type": "string"
        }
      ],
      "name": "takenUsernames",
      "outputs": [
        {
          "internalType": "bool",
          "name": "",
          "type": "bool"
        }
      ],
      "stateMutability": "view",
      "type": "function"
    }
  ],
  "bytecode": "0x608060405234801561001057600080fd5b50610e21806100206000396000f3fe608060405234801561001057600080fd5b50600436106100575760003560e01c8063c3c5a5471461005c578063ce43c0321461008c578063e22554f6146100bc578063e2eb41ff146100ec578063f2c298be1461011d575b600080fd5b61007660048036038101906100719190610621565b610139565b6040516100839190610669565b60405180910390f35b6100a660048036038101906100a19190610621565b610191565b6040516100b39190610714565b60405180910390f35b6100d660048036038101906100d1919061086b565b610264565b6040516100e39190610669565b60405180910390f35b61010660048036038101906101019190610621565b61029a565b6040516101149291906108b4565b60405180910390f35b61013760048036038101906101329190610944565b610353565b005b60008060008373ffffffffffffffffffffffffffffffffffffffff1673ffffffffffffffffffffffffffffffffffffffff16815260200190815260200160002060010160009054906101000a900460ff169050919050565b60606000808373ffffffffffffffffffffffffffffffffffffffff1673ffffffffffffffffffffffffffffffffffffffff16815260200190815260200160002060000180546101df906109c0565b80601f016020809104026020016040519081016040528092919081815260200182805461020b906109c0565b80156102585780601f1061022d57610100808354040283529160200191610258565b820191906000526020600020905b81548152906001019060200180831161023b57829003601f168201915b50505050509050919050565b6001818051602081018201805184825260208301602085012081835280955050505050506000915054906101000a900460ff1681565b60006020528060005260406000206000915090508060000180546102bd906109c0565b80601f01602080910402602001604051908101604052809291908181526020018280546102e9906109c0565b80156103365780601f1061030b57610100808354040283529160200191610336565b820191906000526020600020905b81548152906001019060200180831161031957829003601f168201915b5050505050908060010160009054906101000a900460ff16905082565b6000803373ffffffffffffffffffffffffffffffffffffffff1673ffffffffffffffffffffffffffffffffffffffff16815260200190815260200160002060010160009054906101000a900460ff16156103e2576040517f08c379a00000000000000000000000000000000000000000000000000000000081526004016103d990610a3d565b60405180910390fd5b600182826040516103f4929190610a8d565b908152602001604051809103902060009054906101000a900460ff1615610450576040517f08c379a000000000000000000000000000000000000000000000000000000000815260040161044790610af2565b60405180910390fd5b604051806040016040528083838080601f016020809104026020016040519081016040528093929190818152602001838380828437600081840152601f19601f820116905080830192505050505050508152602001600115158152506000803373ffffffffffffffffffffffffffffffffffffffff1673ffffffffffffffffffffffffffffffffffffffff16815260200190815260200160002060008201518160000190816104ff9190610cc8565b5060208201518160010160006101000a81548160ff0219169083151502179055509050506001808383604051610536929190610a8d565b908152602001604051809103902060006101000a81548160ff0219169083151502179055503373ffffffffffffffffffffffffffffffffffffffff167fe04d23b73ae3d3b27074da9719b5a4cd521395aaf86bfe7e374933ecb567731a83836040516105a3929190610dc7565b60405180910390a25050565b6000604051905090565b600080fd5b600080fd5b600073ffffffffffffffffffffffffffffffffffffffff82169050919050565b60006105ee826105c3565b9050919050565b6105fe816105e3565b811461060957600080fd5b50565b60008135905061061b816105f5565b92915050565b600060208284031215610637576106366105b9565b5b60006106458482850161060c565b91505092915050565b60008115159050919050565b6106638161064e565b82525050565b600060208201905061067e600083018461065a565b92915050565b600081519050919050565b600082825260208201905092915050565b60005b838110156106be5780820151818401526020810190506106a3565b60008484015250505050565b6000601f19601f8301169050919050565b60006106e682610684565b6106f0818561068f565b93506107008185602086016106a0565b610709816106ca565b840191505092915050565b6000602082019050818103600083015261072e81846106db565b905092915050565b600080fd5b600080fd5b7f4e487b7100000000000000000000000000000000000000000000000000000000600052604160045260246000fd5b610778826106ca565b810181811067ffffffffffffffff8211171561079757610796610740565b5b80604052505050565b60006107aa6105af565b90506107b6828261076f565b919050565b600067ffffffffffffffff8211156107d6576107d5610740565b5b6107df826106ca565b9050602081019050919050565b82818337600083830152505050565b600061080e610809846107bb565b6107a0565b90508281526020810184848401111561082a5761082961073b565b5b6108358482856107ec565b509392505050565b600082601f83011261085257610851610736565b5b81356108628482602086016107fb565b91505092915050565b600060208284031215610881576108806105b9565b5b600082013567ffffffffffffffff81111561089f5761089e6105be565b5b6108ab8482850161083d565b91505092915050565b600060408201905081810360008301526108ce81856106db565b90506108dd602083018461065a565b9392505050565b600080fd5b600080fd5b60008083601f84011261090457610903610736565b5b8235905067ffffffffffffffff811115610921576109206108e4565b5b60208301915083600182028301111561093d5761093c6108e9565b5b9250929050565b6000806020838503121561095b5761095a6105b9565b5b600083013567ffffffffffffffff811115610979576109786105be565b5b610985858286016108ee565b92509250509250929050565b7f4e487b7100000000000000000000000000000000000000000000000000000000600052602260045260246000fd5b600060028204905060018216806109d857607f821691505b6020821081036109eb576109ea610991565b5b50919050565b7f416c726561647920726567697374657265640000000000000000000000000000600082015250565b6000610a2760128361068f565b9150610a32826109f1565b602082019050919050565b60006020820190508181036000830152610a5681610a1a565b9050919050565b600081905092915050565b6000610a748385610a5d565b9350610a818385846107ec565b82840190509392505050565b6000610a9a828486610a68565b91508190509392505050565b7f557365726e616d6520616c72656164792074616b656e00000000000000000000600082015250565b6000610adc60168361068f565b9150610ae782610aa6565b602082019050919050565b60006020820190508181036000830152610b0b81610acf565b9050919050565b60008190508160005260206000209050919050565b60006020601f8301049050919050565b600082821b905092915050565b600060088302610b747fffffffffffffffffffffffffffffffffffffffffffffffffffffffffffffffff82610b37565b610b7e8683610b37565b95508019841693508086168417925050509392505050565b6000819050919050565b6000819050919050565b6000610bc5610bc0610bbb84610b96565b610ba0565b610b96565b9050919050565b6000819050919050565b610bdf83610baa565b610bf3610beb82610bcc565b848454610b44565b825550505050565b600090565b610c08610bfb565b610c13818484610bd6565b505050565b5b81811015610c3757610c2c600082610c00565b600181019050610c19565b5050565b601f821115610c7c57610c4d81610b12565b610c5684610b27565b81016020851015610c65578190505b610c79610c7185610b27565b830182610c18565b50505b505050565b600082821c905092915050565b6000610c9f60001984600802610c81565b1980831691505092915050565b6000610cb88383610c8e565b9150826002028217905092915050565b610cd182610684565b67ffffffffffffffff811115610cea57610ce9610740565b5b610cf482546109c0565b610cff828285610c3b565b600060209050601f831160018114610d325760008415610d20578287015190505b610d2a8582610cac565b865550610d92565b601f198416610d4086610b12565b60005b82811015610d6857848901518255600182019150602085019450602081019050610d43565b86831015610d855784890151610d81601f891682610c8e565b8355505b6001600288020188555050505b505050505050565b6000610da6838561068f565b9350610db38385846107ec565b610dbc836106ca565b840190509392505050565b60006020820190508181036000830152610de2818486610d9a565b9050939250505056fea264697066735822122023c8b6cc043958239432466b469d21f858f0ee80145d6d26c540635eabb91e9364736f6c63430008140033",
  "linkReferences": {},
  "deployedLinkReferences": {}
}