{
  "_format": "hh-sol-artifact-1",
  "contractName": "GameEngine",
  "sourceName": "contracts/GameEngine.sol",
  "abi": [
    {
      "inputs": [],
      "stateMutability": "nonpayable",
      "type": "constructor"
    },
    {
      "anonymous": false,
      "inputs": [
        {
          "indexed": false,
          "internalType": "address",
          "name": "caller",
          "type": "address"
        },
        {
          "indexed": false,
          "internalType": "bool",
          "name": "status",
          "type": "bool"
        }
      ],
      "name": "CallerWhitelisted",
      "type": "event"
    },
    {
      "anonymous": false,
      "inputs": [
        {
          "indexed": true,
          "internalType": "address",
          "name": "player",
          "type": "address"
        },
        {
          "indexed": true,
          "internalType": "uint256",
          "name": "worldId",
          "type": "uint256"
        },
        {
          "indexed": false,
          "internalType": "uint256",
          "name": "newPrice",
          "type": "uint256"
        }
      ],
      "name": "PlotPriceUpdated",
      "type": "event"
    },
    {
      "anonymous": false,
      "inputs": [
        {
          "indexed": true,
          "internalType": "address",
          "name": "player",
          "type": "address"
        },
        {
          "indexed": true,
          "internalType": "uint256",
          "name": "worldId",
          "type": "uint256"
        },
        {
          "indexed": false,
          "internalType": "uint8",
          "name": "x",
          "type": "uint8"
        },
        {
          "indexed": false,
          "internalType": "uint8",
          "name": "y",
          "type": "uint8"
        },
        {
          "indexed": false,
          "internalType": "uint256",
          "name": "price",
          "type": "uint256"
        }
      ],
      "name": "PlotPurchased",
      "type": "event"
    },
    {
      "anonymous": false,
      "inputs": [
        {
          "indexed": true,
          "internalType": "address",
          "name": "player",
          "type": "address"
        },
        {
          "indexed": true,
          "internalType": "uint256",
          "name": "worldId",
          "type": "uint256"
        },
        {
          "indexed": false,
          "internalType": "uint256[5]",
          "name": "newResources",
          "type": "uint256[5]"
        }
      ],
      "name": "ResourcesUpdated",
      "type": "event"
    },
    {
      "anonymous": false,
      "inputs": [
        {
          "indexed": true,
          "internalType": "address",
          "name": "player",
          "type": "address"
        },
        {
          "indexed": true,
          "internalType": "uint256",
          "name": "worldId",
          "type": "uint256"
        },
        {
          "indexed": false,
          "internalType": "uint256",
          "name": "timestamp",
          "type": "uint256"
        }
      ],
      "name": "WorldJoined",
      "type": "event"
    },
    {
      "inputs": [],
      "name": "BASE_PRICE",
      "outputs": [
        {
          "internalType": "uint256",
          "name": "",
          "type": "uint256"
        }
      ],
      "stateMutability": "view",
      "type": "function"
    },
    {
      "inputs": [],
      "name": "GRID_SIZE",
      "outputs": [
        {
          "internalType": "uint8",
          "name": "",
          "type": "uint8"
        }
      ],
      "stateMutability": "view",
      "type": "function"
    },
    {
      "inputs": [],
      "name": "JOIN_FEE",
      "outputs": [
        {
          "internalType": "uint256",
          "name": "",
          "type": "uint256"
        }
      ],
      "stateMutability": "view",
      "type": "function"
    },
    {
      "inputs": [],
      "name": "STARTING_RESOURCE",
      "outputs": [
        {
          "internalType": "uint256",
          "name": "",
          "type": "uint256"
        }
      ],
      "stateMutability": "view",
      "type": "function"
    },
    {
      "inputs": [
        {
          "internalType": "uint256",
          "name": "worldId",
          "type": "uint256"
        },
        {
          "internalType": "address",
          "name": "player",
          "type": "address"
        },
        {
          "internalType": "uint8",
          "name": "x",
          "type": "uint8"
        },
        {
          "internalType": "uint8",
          "name": "y",
          "type": "uint8"
        }
      ],
      "name": "buyPlot",
      "outputs": [],
      "stateMutability": "nonpayable",
      "type": "function"
    },
    {
      "inputs": [],
      "name": "gasTreasury",
      "outputs": [
        {
          "internalType": "address",
          "name": "",
          "type": "address"
        }
      ],
      "stateMutability": "view",
      "type": "function"
    },
    {
      "inputs": [
        {
          "internalType": "uint256",
          "name": "worldId",
          "type": "uint256"
        }
      ],
      "name": "getAllPlotOwners",
      "outputs": [
        {
          "internalType": "address[100]",
          "name": "",
          "type": "address[100]"
        }
      ],
      "stateMutability": "view",
      "type": "function"
    },
    {
      "inputs": [
        {
          "internalType": "uint256",
          "name": "worldId",
          "type": "uint256"
        },
        {
          "internalType": "address",
          "name": "player",
          "type": "address"
        }
      ],
      "name": "getPlayerResources",
      "outputs": [
        {
          "internalType": "uint256[5]",
          "name": "",
          "type": "uint256[5]"
        }
      ],
      "stateMutability": "view",
      "type": "function"
    },
    {
      "inputs": [
        {
          "internalType": "uint256",
          "name": "worldId",
          "type": "uint256"
        },
        {
          "internalType": "uint8",
          "name": "x",
          "type": "uint8"
        },
        {
          "internalType": "uint8",
          "name": "y",
          "type": "uint8"
        }
      ],
      "name": "getPlotOwner",
      "outputs": [
        {
          "internalType": "address",
          "name": "",
          "type": "address"
        }
      ],
      "stateMutability": "view",
      "type": "function"
    },
    {
      "inputs": [
        {
          "internalType": "uint256",
          "name": "worldId",
          "type": "uint256"
        },
        {
          "internalType": "address",
          "name": "player",
          "type": "address"
        }
      ],
      "name": "getPlotPrice",
      "outputs": [
        {
          "internalType": "uint256",
          "name": "",
          "type": "uint256"
        }
      ],
      "stateMutability": "view",
      "type": "function"
    },
    {
      "inputs": [
        {
          "internalType": "address",
          "name": "player",
          "type": "address"
        },
        {
          "internalType": "uint256",
          "name": "worldId",
          "type": "uint256"
        }
      ],
      "name": "hasJoined",
      "outputs": [
        {
          "internalType": "bool",
          "name": "",
          "type": "bool"
        }
      ],
      "stateMutability": "view",
      "type": "function"
    },
    {
      "inputs": [
        {
          "internalType": "uint256",
          "name": "worldId",
          "type": "uint256"
        }
      ],
      "name": "joinWorld",
      "outputs": [],
      "stateMutability": "payable",
      "type": "function"
    },
    {
      "inputs": [],
      "name": "owner",
      "outputs": [
        {
          "internalType": "address",
          "name": "",
          "type": "address"
        }
      ],
      "stateMutability": "view",
      "type": "function"
    },
    {
      "inputs": [],
      "name": "pauseGame",
      "outputs": [],
      "stateMutability": "nonpayable",
      "type": "function"
    },
    {
      "inputs": [],
      "name": "paused",
      "outputs": [
        {
          "internalType": "bool",
          "name": "",
          "type": "bool"
        }
      ],
      "stateMutability": "view",
      "type": "function"
    },
    {
      "inputs": [],
      "name": "resumeGame",
      "outputs": [],
      "stateMutability": "nonpayable",
      "type": "function"
    },
    {
      "inputs": [
        {
          "internalType": "address",
          "name": "_gasTreasury",
          "type": "address"
        }
      ],
      "name": "setGasTreasury",
      "outputs": [],
      "stateMutability": "nonpayable",
      "type": "function"
    },
    {
      "inputs": [
        {
          "internalType": "address",
          "name": "caller",
          "type": "address"
        },
        {
          "internalType": "bool",
          "name": "status",
          "type": "bool"
        }
      ],
      "name": "setWhitelistedCaller",
      "outputs": [],
      "stateMutability": "nonpayable",
      "type": "function"
    },
    {
      "inputs": [
        {
          "internalType": "address",
          "name": "",
          "type": "address"
        }
      ],
      "name": "whitelistedCallers",
      "outputs": [
        {
          "internalType": "bool",
          "name": "",
          "type": "bool"
        }
      ],
      "stateMutability": "view",
      "type": "function"
    },
    {
      "inputs": [],
      "name": "withdraw",
      "outputs": [],
      "stateMutability": "nonpayable",
      "type": "function"
    },
    {
      "inputs": [
        {
          "internalType": "uint256",
          "name": "",
          "type": "uint256"
        },
        {
          "internalType": "uint8",
          "name": "",
          "type": "uint8"
        },
        {
          "internalType": "uint8",
          "name": "",
          "type": "uint8"
        }
      ],
      "name": "worldPlots",
      "outputs": [
        {
          "internalType": "address",
          "name": "owner",
          "type": "address"
        },
        {
          "internalType": "uint8",
          "name": "x",
          "type": "uint8"
        },
        {
          "internalType": "uint8",
          "name": "y",
          "type": "uint8"
        }
      ],
      "stateMutability": "view",
      "type": "function"
    }
  ],
  "bytecode": "0x60806040526000600160146101000a81548160ff02191690831515021790555034801561002b57600080fd5b50336000806101000a81548173ffffffffffffffffffffffffffffffffffffffff021916908373ffffffffffffffffffffffffffffffffffffffff16021790555033600160006101000a81548173ffffffffffffffffffffffffffffffffffffffff021916908373ffffffffffffffffffffffffffffffffffffffff1602179055506126f2806100bc6000396000f3fe60806040526004361061012a5760003560e01c80638f3516aa116100ab578063ba697cc51161006f578063ba697cc5146103af578063c0b226dc146103ec578063c78f417214610417578063d4f734ff14610440578063f86325ed1461047d578063ffc97ce9146104a85761012a565b80638f3516aa146102a0578063a2dc525c146102cb578063a5272d9b14610308578063a9d0ddf414610347578063b1a11fa9146103845761012a565b806357ac540c116100f257806357ac540c146101b95780635c975abb146101f65780636146a503146102215780637fc4eda81461024a5780638da5cb5b146102755761012a565b80631875548c1461012f578063368a4979146101585780633cc4c6ce146101745780633ccfd60b1461018b578063499831f2146101a2575b600080fd5b34801561013b57600080fd5b50610156600480360381019061015191906118eb565b6104e5565b005b610172600480360381019061016d919061194e565b6105b7565b005b34801561018057600080fd5b50610189610941565b005b34801561019757600080fd5b506101a06109ec565b005b3480156101ae57600080fd5b506101b7610b93565b005b3480156101c557600080fd5b506101e060048036038101906101db919061194e565b610c3d565b6040516101ed9190611a26565b60405180910390f35b34801561020257600080fd5b5061020b610d5f565b6040516102189190611a5d565b60405180910390f35b34801561022d57600080fd5b5061024860048036038101906102439190611aa4565b610d72565b005b34801561025657600080fd5b5061025f610e94565b60405161026c9190611b00565b60405180910390f35b34801561028157600080fd5b5061028a610e99565b6040516102979190611b2a565b60405180910390f35b3480156102ac57600080fd5b506102b5610ebd565b6040516102c29190611b2a565b60405180910390f35b3480156102d757600080fd5b506102f260048036038101906102ed9190611b45565b610ee3565b6040516102ff9190611c30565b60405180910390f35b34801561031457600080fd5b5061032f600480360381019061032a9190611c77565b610feb565b60405161033e93929190611cca565b60405180910390f35b34801561035357600080fd5b5061036e60048036038101906103699190611d01565b611069565b60405161037b9190611a5d565b60405180910390f35b34801561039057600080fd5b506103996110d4565b6040516103a69190611d50565b60405180910390f35b3480156103bb57600080fd5b506103d660048036038101906103d19190611b45565b6110da565b6040516103e39190611d50565b60405180910390f35b3480156103f857600080fd5b50610401611170565b60405161040e9190611d50565b60405180910390f35b34801561042357600080fd5b5061043e60048036038101906104399190611d6b565b61117c565b005b34801561044c57600080fd5b5061046760048036038101906104629190611c77565b6117ae565b6040516104749190611b2a565b60405180910390f35b34801561048957600080fd5b5061049261181e565b60405161049f9190611d50565b60405180910390f35b3480156104b457600080fd5b506104cf60048036038101906104ca91906118eb565b611823565b6040516104dc9190611a5d565b60405180910390f35b60008054906101000a900473ffffffffffffffffffffffffffffffffffffffff1673ffffffffffffffffffffffffffffffffffffffff163373ffffffffffffffffffffffffffffffffffffffff1614610573576040517f08c379a000000000000000000000000000000000000000000000000000000000815260040161056a90611e2f565b60405180910390fd5b80600160006101000a81548173ffffffffffffffffffffffffffffffffffffffff021916908373ffffffffffffffffffffffffffffffffffffffff16021790555050565b600160149054906101000a900460ff1615610607576040517f08c379a00000000000000000000000000000000000000000000000000000000081526004016105fe90611e9b565b60405180910390fd5b6000811161064a576040517f08c379a000000000000000000000000000000000000000000000000000000000815260040161064190611f07565b60405180910390fd5b6000600260003373ffffffffffffffffffffffffffffffffffffffff1673ffffffffffffffffffffffffffffffffffffffff168152602001908152602001600020600083815260200190815260200160002090508060000160009054906101000a900460ff16156106f0576040517f08c379a00000000000000000000000000000000000000000000000000000000081526004016106e790611f73565b60405180910390fd5b678ac7230489e80000341461073a576040517f08c379a000000000000000000000000000000000000000000000000000000000815260040161073190611fdf565b60405180910390fd5b60018160000160006101000a81548160ff02191690831515021790555042816001018190555060005b60058160ff1610156107a4576127108260030160008360ff1660ff16815260200190815260200160002081905550808061079c9061202e565b915050610763565b50813373ffffffffffffffffffffffffffffffffffffffff167fdbfef52a5efebb3247a24935b743e9372a6b80fbcb6da03ee45133b0ce7a520d426040516107ec9190611d50565b60405180910390a3813373ffffffffffffffffffffffffffffffffffffffff167fb15eac3d51c36296e53fcb8af6b8c6889c43931887fd6f0c50bf79eb917cfc9c6040518060a001604052808560030160008060ff168152602001908152602001600020548152602001856003016000600160ff168152602001908152602001600020548152602001856003016000600260ff168152602001908152602001600020548152602001856003016000600360ff168152602001908152602001600020548152602001856003016000600460ff168152602001908152602001600020548152506040516108dd9190611c30565b60405180910390a3813373ffffffffffffffffffffffffffffffffffffffff167f809c3882e12d73b07bddd8013dfe5659c4f29736c3d95870fcb85f7a7025072861092885336110da565b6040516109359190611d50565b60405180910390a35050565b60008054906101000a900473ffffffffffffffffffffffffffffffffffffffff1673ffffffffffffffffffffffffffffffffffffffff163373ffffffffffffffffffffffffffffffffffffffff16146109cf576040517f08c379a00000000000000000000000000000000000000000000000000000000081526004016109c690611e2f565b60405180910390fd5b6000600160146101000a81548160ff021916908315150217905550565b60008054906101000a900473ffffffffffffffffffffffffffffffffffffffff1673ffffffffffffffffffffffffffffffffffffffff163373ffffffffffffffffffffffffffffffffffffffff1614610a7a576040517f08c379a0000000000000000000000000000000000000000000000000000000008152600401610a7190611e2f565b60405180910390fd5b600047905060008111610ac2576040517f08c379a0000000000000000000000000000000000000000000000000000000008152600401610ab9906120a3565b60405180910390fd5b60008060009054906101000a900473ffffffffffffffffffffffffffffffffffffffff1673ffffffffffffffffffffffffffffffffffffffff1682604051610b09906120f4565b60006040518083038185875af1925050503d8060008114610b46576040519150601f19603f3d011682016040523d82523d6000602084013e610b4b565b606091505b5050905080610b8f576040517f08c379a0000000000000000000000000000000000000000000000000000000008152600401610b8690612155565b60405180910390fd5b5050565b60008054906101000a900473ffffffffffffffffffffffffffffffffffffffff1673ffffffffffffffffffffffffffffffffffffffff163373ffffffffffffffffffffffffffffffffffffffff1614610c21576040517f08c379a0000000000000000000000000000000000000000000000000000000008152600401610c1890611e2f565b60405180910390fd5b60018060146101000a81548160ff021916908315150217905550565b610c45611843565b610c4d611843565b6000805b600a60ff168160ff161015610d545760005b600a60ff168160ff161015610d40576003600087815260200190815260200160002060008360ff1660ff16815260200190815260200160002060008260ff1660ff16815260200190815260200160002060000160009054906101000a900473ffffffffffffffffffffffffffffffffffffffff16848480610ce390612175565b955060648110610cf657610cf56121bd565b5b602002019073ffffffffffffffffffffffffffffffffffffffff16908173ffffffffffffffffffffffffffffffffffffffff16815250508080610d389061202e565b915050610c63565b508080610d4c9061202e565b915050610c51565b508192505050919050565b600160149054906101000a900460ff1681565b60008054906101000a900473ffffffffffffffffffffffffffffffffffffffff1673ffffffffffffffffffffffffffffffffffffffff163373ffffffffffffffffffffffffffffffffffffffff1614610e00576040517f08c379a0000000000000000000000000000000000000000000000000000000008152600401610df790611e2f565b60405180910390fd5b80600460008473ffffffffffffffffffffffffffffffffffffffff1673ffffffffffffffffffffffffffffffffffffffff16815260200190815260200160002060006101000a81548160ff0219169083151502179055507f072c1e7157cac1da7b47baec2032fb5468254f38c4e6d40222c8a2d39d7e33038282604051610e889291906121ec565b60405180910390a15050565b600a81565b60008054906101000a900473ffffffffffffffffffffffffffffffffffffffff1681565b600160009054906101000a900473ffffffffffffffffffffffffffffffffffffffff1681565b610eeb611866565b6000600260008473ffffffffffffffffffffffffffffffffffffffff1673ffffffffffffffffffffffffffffffffffffffff168152602001908152602001600020600085815260200190815260200160002090506040518060a001604052808260030160008060ff168152602001908152602001600020548152602001826003016000600160ff168152602001908152602001600020548152602001826003016000600260ff168152602001908152602001600020548152602001826003016000600360ff168152602001908152602001600020548152602001826003016000600460ff1681526020019081526020016000205481525091505092915050565b600360205282600052604060002060205281600052604060002060205280600052604060002060009250925050508060000160009054906101000a900473ffffffffffffffffffffffffffffffffffffffff16908060000160149054906101000a900460ff16908060000160159054906101000a900460ff16905083565b6000600260008473ffffffffffffffffffffffffffffffffffffffff1673ffffffffffffffffffffffffffffffffffffffff168152602001908152602001600020600083815260200190815260200160002060000160009054906101000a900460ff16905092915050565b61271081565b600080600260008473ffffffffffffffffffffffffffffffffffffffff1673ffffffffffffffffffffffffffffffffffffffff168152602001908152602001600020600085815260200190815260200160002090508060020154600a6111409190612348565b8160020154600f6111519190612348565b606461115d9190612393565b6111679190612404565b91505092915050565b678ac7230489e8000081565b600160149054906101000a900460ff16156111cc576040517f08c379a00000000000000000000000000000000000000000000000000000000081526004016111c390611e9b565b60405180910390fd5b600460003373ffffffffffffffffffffffffffffffffffffffff1673ffffffffffffffffffffffffffffffffffffffff16815260200190815260200160002060009054906101000a900460ff16611258576040517f08c379a000000000000000000000000000000000000000000000000000000000815260040161124f90612481565b60405180910390fd5b600a60ff168260ff161080156112745750600a60ff168160ff16105b6112b3576040517f08c379a00000000000000000000000000000000000000000000000000000000081526004016112aa906124ed565b60405180910390fd5b6000600260008573ffffffffffffffffffffffffffffffffffffffff1673ffffffffffffffffffffffffffffffffffffffff168152602001908152602001600020600086815260200190815260200160002090508060000160009054906101000a900460ff16611358576040517f08c379a000000000000000000000000000000000000000000000000000000000815260040161134f90612559565b60405180910390fd5b600073ffffffffffffffffffffffffffffffffffffffff166003600087815260200190815260200160002060008560ff1660ff16815260200190815260200160002060008460ff1660ff16815260200190815260200160002060000160009054906101000a900473ffffffffffffffffffffffffffffffffffffffff1673ffffffffffffffffffffffffffffffffffffffff161461142b576040517f08c379a0000000000000000000000000000000000000000000000000000000008152600401611422906125c5565b60405180910390fd5b600061143786866110da565b905060005b60058160ff1610156114eb57818360030160008360ff1660ff1681526020019081526020016000205410156114a6576040517f08c379a000000000000000000000000000000000000000000000000000000000815260040161149d90612631565b60405180910390fd5b818360030160008360ff1660ff16815260200190815260200160002060008282546114d19190612651565b9250508190555080806114e39061202e565b91505061143c565b5060405180606001604052808673ffffffffffffffffffffffffffffffffffffffff1681526020018560ff1681526020018460ff168152506003600088815260200190815260200160002060008660ff1660ff16815260200190815260200160002060008560ff1660ff16815260200190815260200160002060008201518160000160006101000a81548173ffffffffffffffffffffffffffffffffffffffff021916908373ffffffffffffffffffffffffffffffffffffffff16021790555060208201518160000160146101000a81548160ff021916908360ff16021790555060408201518160000160156101000a81548160ff021916908360ff16021790555090505081600201600081548092919061160590612175565b9190505550858573ffffffffffffffffffffffffffffffffffffffff167fe6d856ee0a4e26b7e7aa306be320b1ec64b2d1c144caa7c230a6462beb0c516686868560405161165593929190612685565b60405180910390a3858573ffffffffffffffffffffffffffffffffffffffff167fb15eac3d51c36296e53fcb8af6b8c6889c43931887fd6f0c50bf79eb917cfc9c6040518060a001604052808660030160008060ff168152602001908152602001600020548152602001866003016000600160ff168152602001908152602001600020548152602001866003016000600260ff168152602001908152602001600020548152602001866003016000600360ff168152602001908152602001600020548152602001866003016000600460ff168152602001908152602001600020548152506040516117469190611c30565b60405180910390a3858573ffffffffffffffffffffffffffffffffffffffff167f809c3882e12d73b07bddd8013dfe5659c4f29736c3d95870fcb85f7a7025072861179189896110da565b60405161179e9190611d50565b60405180910390a3505050505050565b60006003600085815260200190815260200160002060008460ff1660ff16815260200190815260200160002060008360ff1660ff16815260200190815260200160002060000160009054906101000a900473ffffffffffffffffffffffffffffffffffffffff1690509392505050565b606481565b60046020528060005260406000206000915054906101000a900460ff1681565b60405180610c800160405280606490602082028036833780820191505090505090565b6040518060a00160405280600590602082028036833780820191505090505090565b600080fd5b600073ffffffffffffffffffffffffffffffffffffffff82169050919050565b60006118b88261188d565b9050919050565b6118c8816118ad565b81146118d357600080fd5b50565b6000813590506118e5816118bf565b92915050565b60006020828403121561190157611900611888565b5b600061190f848285016118d6565b91505092915050565b6000819050919050565b61192b81611918565b811461193657600080fd5b50565b60008135905061194881611922565b92915050565b60006020828403121561196457611963611888565b5b600061197284828501611939565b91505092915050565b600060649050919050565b600081905092915050565b6000819050919050565b6119a4816118ad565b82525050565b60006119b6838361199b565b60208301905092915050565b6000602082019050919050565b6119d88161197b565b6119e28184611986565b92506119ed82611991565b8060005b83811015611a1e578151611a0587826119aa565b9650611a10836119c2565b9250506001810190506119f1565b505050505050565b6000610c8082019050611a3c60008301846119cf565b92915050565b60008115159050919050565b611a5781611a42565b82525050565b6000602082019050611a726000830184611a4e565b92915050565b611a8181611a42565b8114611a8c57600080fd5b50565b600081359050611a9e81611a78565b92915050565b60008060408385031215611abb57611aba611888565b5b6000611ac9858286016118d6565b9250506020611ada85828601611a8f565b9150509250929050565b600060ff82169050919050565b611afa81611ae4565b82525050565b6000602082019050611b156000830184611af1565b92915050565b611b24816118ad565b82525050565b6000602082019050611b3f6000830184611b1b565b92915050565b60008060408385031215611b5c57611b5b611888565b5b6000611b6a85828601611939565b9250506020611b7b858286016118d6565b9150509250929050565b600060059050919050565b600081905092915050565b6000819050919050565b611bae81611918565b82525050565b6000611bc08383611ba5565b60208301905092915050565b6000602082019050919050565b611be281611b85565b611bec8184611b90565b9250611bf782611b9b565b8060005b83811015611c28578151611c0f8782611bb4565b9650611c1a83611bcc565b925050600181019050611bfb565b505050505050565b600060a082019050611c456000830184611bd9565b92915050565b611c5481611ae4565b8114611c5f57600080fd5b50565b600081359050611c7181611c4b565b92915050565b600080600060608486031215611c9057611c8f611888565b5b6000611c9e86828701611939565b9350506020611caf86828701611c62565b9250506040611cc086828701611c62565b9150509250925092565b6000606082019050611cdf6000830186611b1b565b611cec6020830185611af1565b611cf96040830184611af1565b949350505050565b60008060408385031215611d1857611d17611888565b5b6000611d26858286016118d6565b9250506020611d3785828601611939565b9150509250929050565b611d4a81611918565b82525050565b6000602082019050611d656000830184611d41565b92915050565b60008060008060808587031215611d8557611d84611888565b5b6000611d9387828801611939565b9450506020611da4878288016118d6565b9350506040611db587828801611c62565b9250506060611dc687828801611c62565b91505092959194509250565b600082825260208201905092915050565b7f4e6f7420746865206f776e657200000000000000000000000000000000000000600082015250565b6000611e19600d83611dd2565b9150611e2482611de3565b602082019050919050565b60006020820190508181036000830152611e4881611e0c565b9050919050565b7f47616d6520697320706175736564000000000000000000000000000000000000600082015250565b6000611e85600e83611dd2565b9150611e9082611e4f565b602082019050919050565b60006020820190508181036000830152611eb481611e78565b9050919050565b7f496e76616c696420776f726c6400000000000000000000000000000000000000600082015250565b6000611ef1600d83611dd2565b9150611efc82611ebb565b602082019050919050565b60006020820190508181036000830152611f2081611ee4565b9050919050565b7f416c7265616479206a6f696e6564000000000000000000000000000000000000600082015250565b6000611f5d600e83611dd2565b9150611f6882611f27565b602082019050919050565b60006020820190508181036000830152611f8c81611f50565b9050919050565b7f4d757374207061792031302074485944524120746f206a6f696e000000000000600082015250565b6000611fc9601a83611dd2565b9150611fd482611f93565b602082019050919050565b60006020820190508181036000830152611ff881611fbc565b9050919050565b7f4e487b7100000000000000000000000000000000000000000000000000000000600052601160045260246000fd5b600061203982611ae4565b915060ff820361204c5761204b611fff565b5b600182019050919050565b7f4e6f2066756e6473000000000000000000000000000000000000000000000000600082015250565b600061208d600883611dd2565b915061209882612057565b602082019050919050565b600060208201905081810360008301526120bc81612080565b9050919050565b600081905092915050565b50565b60006120de6000836120c3565b91506120e9826120ce565b600082019050919050565b60006120ff826120d1565b9150819050919050565b7f5769746864726177206661696c65640000000000000000000000000000000000600082015250565b600061213f600f83611dd2565b915061214a82612109565b602082019050919050565b6000602082019050818103600083015261216e81612132565b9050919050565b600061218082611918565b91507fffffffffffffffffffffffffffffffffffffffffffffffffffffffffffffffff82036121b2576121b1611fff565b5b600182019050919050565b7f4e487b7100000000000000000000000000000000000000000000000000000000600052603260045260246000fd5b60006040820190506122016000830185611b1b565b61220e6020830184611a4e565b9392505050565b60008160011c9050919050565b6000808291508390505b600185111561226c5780860481111561224857612247611fff565b5b60018516156122575780820291505b808102905061226585612215565b945061222c565b94509492505050565b6000826122855760019050612341565b816122935760009050612341565b81600181146122a957600281146122b3576122e2565b6001915050612341565b60ff8411156122c5576122c4611fff565b5b8360020a9150848211156122dc576122db611fff565b5b50612341565b5060208310610133831016604e8410600b84101617156123175782820a90508381111561231257612311611fff565b5b612341565b6123248484846001612222565b9250905081840481111561233b5761233a611fff565b5b81810290505b9392505050565b600061235382611918565b915061235e83611918565b925061238b7fffffffffffffffffffffffffffffffffffffffffffffffffffffffffffffffff8484612275565b905092915050565b600061239e82611918565b91506123a983611918565b92508282026123b781611918565b915082820484148315176123ce576123cd611fff565b5b5092915050565b7f4e487b7100000000000000000000000000000000000000000000000000000000600052601260045260246000fd5b600061240f82611918565b915061241a83611918565b92508261242a576124296123d5565b5b828204905092915050565b7f4e6f742077686974656c69737465640000000000000000000000000000000000600082015250565b600061246b600f83611dd2565b915061247682612435565b602082019050919050565b6000602082019050818103600083015261249a8161245e565b9050919050565b7f496e76616c696420636f6f726473000000000000000000000000000000000000600082015250565b60006124d7600e83611dd2565b91506124e2826124a1565b602082019050919050565b60006020820190508181036000830152612506816124ca565b9050919050565b7f4e6f7420696e20776f726c640000000000000000000000000000000000000000600082015250565b6000612543600c83611dd2565b915061254e8261250d565b602082019050919050565b6000602082019050818103600083015261257281612536565b9050919050565b7f416c7265616479206f776e656400000000000000000000000000000000000000600082015250565b60006125af600d83611dd2565b91506125ba82612579565b602082019050919050565b600060208201905081810360008301526125de816125a2565b9050919050565b7f4e6f7420656e6f756768207265736f7572636573000000000000000000000000600082015250565b600061261b601483611dd2565b9150612626826125e5565b602082019050919050565b6000602082019050818103600083015261264a8161260e565b9050919050565b600061265c82611918565b915061266783611918565b925082820390508181111561267f5761267e611fff565b5b92915050565b600060608201905061269a6000830186611af1565b6126a76020830185611af1565b6126b46040830184611d41565b94935050505056fea26469706673582212202b202522411ffbc418f68726b2114d6e40dd5124addd25d78ce02921714c0f1f64736f6c63430008140033",
  "linkReferences": {},
  "deployedLinkReferences": {}
}