{
  "_format": "hh-sol-artifact-1",
  "contractName": "GameEngine",
  "sourceName": "contracts/GameEngine.sol",
  "abi": [
    {
      "inputs": [],
      "stateMutability": "nonpayable",
      "type": "constructor"
    },
    {
      "anonymous": false,
      "inputs": [
        {
          "indexed": false,
          "internalType": "address",
          "name": "caller",
          "type": "address"
        },
        {
          "indexed": false,
          "internalType": "bool",
          "name": "status",
          "type": "bool"
        }
      ],
      "name": "CallerWhitelisted",
      "type": "event"
    },
    {
      "anonymous": false,
      "inputs": [
        {
          "indexed": true,
          "internalType": "address",
          "name": "player",
          "type": "address"
        },
        {
          "indexed": true,
          "internalType": "uint256",
          "name": "worldId",
          "type": "uint256"
        },
        {
          "indexed": false,
          "internalType": "uint8",
          "name": "x",
          "type": "uint8"
        },
        {
          "indexed": false,
          "internalType": "uint8",
          "name": "y",
          "type": "uint8"
        },
        {
          "indexed": false,
          "internalType": "uint256",
          "name": "price",
          "type": "uint256"
        }
      ],
      "name": "PlotPurchased",
      "type": "event"
    },
    {
      "anonymous": false,
      "inputs": [
        {
          "indexed": true,
          "internalType": "address",
          "name": "player",
          "type": "address"
        },
        {
          "indexed": true,
          "internalType": "uint256",
          "name": "worldId",
          "type": "uint256"
        },
        {
          "indexed": false,
          "internalType": "uint256",
          "name": "timestamp",
          "type": "uint256"
        }
      ],
      "name": "WorldJoined",
      "type": "event"
    },
    {
      "inputs": [],
      "name": "BASE_PRICE",
      "outputs": [
        {
          "internalType": "uint256",
          "name": "",
          "type": "uint256"
        }
      ],
      "stateMutability": "view",
      "type": "function"
    },
    {
      "inputs": [],
      "name": "GRID_SIZE",
      "outputs": [
        {
          "internalType": "uint8",
          "name": "",
          "type": "uint8"
        }
      ],
      "stateMutability": "view",
      "type": "function"
    },
    {
      "inputs": [],
      "name": "JOIN_FEE",
      "outputs": [
        {
          "internalType": "uint256",
          "name": "",
          "type": "uint256"
        }
      ],
      "stateMutability": "view",
      "type": "function"
    },
    {
      "inputs": [],
      "name": "STARTING_RESOURCE",
      "outputs": [
        {
          "internalType": "uint256",
          "name": "",
          "type": "uint256"
        }
      ],
      "stateMutability": "view",
      "type": "function"
    },
    {
      "inputs": [
        {
          "internalType": "uint256",
          "name": "worldId",
          "type": "uint256"
        },
        {
          "internalType": "address",
          "name": "player",
          "type": "address"
        },
        {
          "internalType": "uint8",
          "name": "x",
          "type": "uint8"
        },
        {
          "internalType": "uint8",
          "name": "y",
          "type": "uint8"
        }
      ],
      "name": "buyPlot",
      "outputs": [],
      "stateMutability": "nonpayable",
      "type": "function"
    },
    {
      "inputs": [],
      "name": "gasTreasury",
      "outputs": [
        {
          "internalType": "address",
          "name": "",
          "type": "address"
        }
      ],
      "stateMutability": "view",
      "type": "function"
    },
    {
      "inputs": [
        {
          "internalType": "uint256",
          "name": "worldId",
          "type": "uint256"
        }
      ],
      "name": "getAllPlotOwners",
      "outputs": [
        {
          "internalType": "address[100]",
          "name": "",
          "type": "address[100]"
        }
      ],
      "stateMutability": "view",
      "type": "function"
    },
    {
      "inputs": [
        {
          "internalType": "uint256",
          "name": "worldId",
          "type": "uint256"
        },
        {
          "internalType": "address",
          "name": "player",
          "type": "address"
        }
      ],
      "name": "getPlayerResources",
      "outputs": [
        {
          "internalType": "uint256[5]",
          "name": "",
          "type": "uint256[5]"
        }
      ],
      "stateMutability": "view",
      "type": "function"
    },
    {
      "inputs": [
        {
          "internalType": "uint256",
          "name": "worldId",
          "type": "uint256"
        },
        {
          "internalType": "uint8",
          "name": "x",
          "type": "uint8"
        },
        {
          "internalType": "uint8",
          "name": "y",
          "type": "uint8"
        }
      ],
      "name": "getPlotOwner",
      "outputs": [
        {
          "internalType": "address",
          "name": "",
          "type": "address"
        }
      ],
      "stateMutability": "view",
      "type": "function"
    },
    {
      "inputs": [
        {
          "internalType": "uint256",
          "name": "worldId",
          "type": "uint256"
        },
        {
          "internalType": "address",
          "name": "player",
          "type": "address"
        }
      ],
      "name": "getPlotPrice",
      "outputs": [
        {
          "internalType": "uint256",
          "name": "",
          "type": "uint256"
        }
      ],
      "stateMutability": "view",
      "type": "function"
    },
    {
      "inputs": [
        {
          "internalType": "address",
          "name": "player",
          "type": "address"
        },
        {
          "internalType": "uint256",
          "name": "worldId",
          "type": "uint256"
        }
      ],
      "name": "hasJoined",
      "outputs": [
        {
          "internalType": "bool",
          "name": "",
          "type": "bool"
        }
      ],
      "stateMutability": "view",
      "type": "function"
    },
    {
      "inputs": [
        {
          "internalType": "uint256",
          "name": "worldId",
          "type": "uint256"
        }
      ],
      "name": "joinWorld",
      "outputs": [],
      "stateMutability": "payable",
      "type": "function"
    },
    {
      "inputs": [],
      "name": "owner",
      "outputs": [
        {
          "internalType": "address",
          "name": "",
          "type": "address"
        }
      ],
      "stateMutability": "view",
      "type": "function"
    },
    {
      "inputs": [],
      "name": "pauseGame",
      "outputs": [],
      "stateMutability": "nonpayable",
      "type": "function"
    },
    {
      "inputs": [],
      "name": "paused",
      "outputs": [
        {
          "internalType": "bool",
          "name": "",
          "type": "bool"
        }
      ],
      "stateMutability": "view",
      "type": "function"
    },
    {
      "inputs": [],
      "name": "resumeGame",
      "outputs": [],
      "stateMutability": "nonpayable",
      "type": "function"
    },
    {
      "inputs": [
        {
          "internalType": "address",
          "name": "_gasTreasury",
          "type": "address"
        }
      ],
      "name": "setGasTreasury",
      "outputs": [],
      "stateMutability": "nonpayable",
      "type": "function"
    },
    {
      "inputs": [
        {
          "internalType": "address",
          "name": "caller",
          "type": "address"
        },
        {
          "internalType": "bool",
          "name": "status",
          "type": "bool"
        }
      ],
      "name": "setWhitelistedCaller",
      "outputs": [],
      "stateMutability": "nonpayable",
      "type": "function"
    },
    {
      "inputs": [
        {
          "internalType": "address",
          "name": "",
          "type": "address"
        }
      ],
      "name": "whitelistedCallers",
      "outputs": [
        {
          "internalType": "bool",
          "name": "",
          "type": "bool"
        }
      ],
      "stateMutability": "view",
      "type": "function"
    },
    {
      "inputs": [],
      "name": "withdraw",
      "outputs": [],
      "stateMutability": "nonpayable",
      "type": "function"
    },
    {
      "inputs": [
        {
          "internalType": "uint256",
          "name": "",
          "type": "uint256"
        },
        {
          "internalType": "uint8",
          "name": "",
          "type": "uint8"
        },
        {
          "internalType": "uint8",
          "name": "",
          "type": "uint8"
        }
      ],
      "name": "worldPlots",
      "outputs": [
        {
          "internalType": "address",
          "name": "owner",
          "type": "address"
        },
        {
          "internalType": "uint8",
          "name": "x",
          "type": "uint8"
        },
        {
          "internalType": "uint8",
          "name": "y",
          "type": "uint8"
        }
      ],
      "stateMutability": "view",
      "type": "function"
    }
  ],
  "bytecode": "0x60806040526000600160146101000a81548160ff02191690831515021790555034801561002b57600080fd5b50336000806101000a81548173ffffffffffffffffffffffffffffffffffffffff021916908373ffffffffffffffffffffffffffffffffffffffff16021790555033600160006101000a81548173ffffffffffffffffffffffffffffffffffffffff021916908373ffffffffffffffffffffffffffffffffffffffff160217905550612460806100bc6000396000f3fe60806040526004361061012a5760003560e01c80638f3516aa116100ab578063ba697cc51161006f578063ba697cc5146103af578063c0b226dc146103ec578063c78f417214610417578063d4f734ff14610440578063f86325ed1461047d578063ffc97ce9146104a85761012a565b80638f3516aa146102a0578063a2dc525c146102cb578063a5272d9b14610308578063a9d0ddf414610347578063b1a11fa9146103845761012a565b806357ac540c116100f257806357ac540c146101b95780635c975abb146101f65780636146a503146102215780637fc4eda81461024a5780638da5cb5b146102755761012a565b80631875548c1461012f578063368a4979146101585780633cc4c6ce146101745780633ccfd60b1461018b578063499831f2146101a2575b600080fd5b34801561013b57600080fd5b5061015660048036038101906101519190611659565b6104e5565b005b610172600480360381019061016d91906116bc565b6105b7565b005b34801561018057600080fd5b506101896107f8565b005b34801561019757600080fd5b506101a06108a3565b005b3480156101ae57600080fd5b506101b7610a4a565b005b3480156101c557600080fd5b506101e060048036038101906101db91906116bc565b610af4565b6040516101ed9190611794565b60405180910390f35b34801561020257600080fd5b5061020b610c16565b60405161021891906117cb565b60405180910390f35b34801561022d57600080fd5b5061024860048036038101906102439190611812565b610c29565b005b34801561025657600080fd5b5061025f610d4b565b60405161026c919061186e565b60405180910390f35b34801561028157600080fd5b5061028a610d50565b6040516102979190611898565b60405180910390f35b3480156102ac57600080fd5b506102b5610d74565b6040516102c29190611898565b60405180910390f35b3480156102d757600080fd5b506102f260048036038101906102ed91906118b3565b610d9a565b6040516102ff919061199e565b60405180910390f35b34801561031457600080fd5b5061032f600480360381019061032a91906119e5565b610ea2565b60405161033e93929190611a38565b60405180910390f35b34801561035357600080fd5b5061036e60048036038101906103699190611a6f565b610f20565b60405161037b91906117cb565b60405180910390f35b34801561039057600080fd5b50610399610f8b565b6040516103a69190611abe565b60405180910390f35b3480156103bb57600080fd5b506103d660048036038101906103d191906118b3565b610f91565b6040516103e39190611abe565b60405180910390f35b3480156103f857600080fd5b50610401611027565b60405161040e9190611abe565b60405180910390f35b34801561042357600080fd5b5061043e60048036038101906104399190611ad9565b611033565b005b34801561044c57600080fd5b50610467600480360381019061046291906119e5565b61151c565b6040516104749190611898565b60405180910390f35b34801561048957600080fd5b5061049261158c565b60405161049f9190611abe565b60405180910390f35b3480156104b457600080fd5b506104cf60048036038101906104ca9190611659565b611591565b6040516104dc91906117cb565b60405180910390f35b60008054906101000a900473ffffffffffffffffffffffffffffffffffffffff1673ffffffffffffffffffffffffffffffffffffffff163373ffffffffffffffffffffffffffffffffffffffff1614610573576040517f08c379a000000000000000000000000000000000000000000000000000000000815260040161056a90611b9d565b60405180910390fd5b80600160006101000a81548173ffffffffffffffffffffffffffffffffffffffff021916908373ffffffffffffffffffffffffffffffffffffffff16021790555050565b600160149054906101000a900460ff1615610607576040517f08c379a00000000000000000000000000000000000000000000000000000000081526004016105fe90611c09565b60405180910390fd5b6000811161064a576040517f08c379a000000000000000000000000000000000000000000000000000000000815260040161064190611c75565b60405180910390fd5b6000600260003373ffffffffffffffffffffffffffffffffffffffff1673ffffffffffffffffffffffffffffffffffffffff168152602001908152602001600020600083815260200190815260200160002090508060000160009054906101000a900460ff16156106f0576040517f08c379a00000000000000000000000000000000000000000000000000000000081526004016106e790611ce1565b60405180910390fd5b678ac7230489e80000341461073a576040517f08c379a000000000000000000000000000000000000000000000000000000000815260040161073190611d4d565b60405180910390fd5b60018160000160006101000a81548160ff02191690831515021790555042816001018190555060005b60058160ff1610156107a4576127108260030160008360ff1660ff16815260200190815260200160002081905550808061079c90611d9c565b915050610763565b50813373ffffffffffffffffffffffffffffffffffffffff167fdbfef52a5efebb3247a24935b743e9372a6b80fbcb6da03ee45133b0ce7a520d426040516107ec9190611abe565b60405180910390a35050565b60008054906101000a900473ffffffffffffffffffffffffffffffffffffffff1673ffffffffffffffffffffffffffffffffffffffff163373ffffffffffffffffffffffffffffffffffffffff1614610886576040517f08c379a000000000000000000000000000000000000000000000000000000000815260040161087d90611b9d565b60405180910390fd5b6000600160146101000a81548160ff021916908315150217905550565b60008054906101000a900473ffffffffffffffffffffffffffffffffffffffff1673ffffffffffffffffffffffffffffffffffffffff163373ffffffffffffffffffffffffffffffffffffffff1614610931576040517f08c379a000000000000000000000000000000000000000000000000000000000815260040161092890611b9d565b60405180910390fd5b600047905060008111610979576040517f08c379a000000000000000000000000000000000000000000000000000000000815260040161097090611e11565b60405180910390fd5b60008060009054906101000a900473ffffffffffffffffffffffffffffffffffffffff1673ffffffffffffffffffffffffffffffffffffffff16826040516109c090611e62565b60006040518083038185875af1925050503d80600081146109fd576040519150601f19603f3d011682016040523d82523d6000602084013e610a02565b606091505b5050905080610a46576040517f08c379a0000000000000000000000000000000000000000000000000000000008152600401610a3d90611ec3565b60405180910390fd5b5050565b60008054906101000a900473ffffffffffffffffffffffffffffffffffffffff1673ffffffffffffffffffffffffffffffffffffffff163373ffffffffffffffffffffffffffffffffffffffff1614610ad8576040517f08c379a0000000000000000000000000000000000000000000000000000000008152600401610acf90611b9d565b60405180910390fd5b60018060146101000a81548160ff021916908315150217905550565b610afc6115b1565b610b046115b1565b6000805b600a60ff168160ff161015610c0b5760005b600a60ff168160ff161015610bf7576003600087815260200190815260200160002060008360ff1660ff16815260200190815260200160002060008260ff1660ff16815260200190815260200160002060000160009054906101000a900473ffffffffffffffffffffffffffffffffffffffff16848480610b9a90611ee3565b955060648110610bad57610bac611f2b565b5b602002019073ffffffffffffffffffffffffffffffffffffffff16908173ffffffffffffffffffffffffffffffffffffffff16815250508080610bef90611d9c565b915050610b1a565b508080610c0390611d9c565b915050610b08565b508192505050919050565b600160149054906101000a900460ff1681565b60008054906101000a900473ffffffffffffffffffffffffffffffffffffffff1673ffffffffffffffffffffffffffffffffffffffff163373ffffffffffffffffffffffffffffffffffffffff1614610cb7576040517f08c379a0000000000000000000000000000000000000000000000000000000008152600401610cae90611b9d565b60405180910390fd5b80600460008473ffffffffffffffffffffffffffffffffffffffff1673ffffffffffffffffffffffffffffffffffffffff16815260200190815260200160002060006101000a81548160ff0219169083151502179055507f072c1e7157cac1da7b47baec2032fb5468254f38c4e6d40222c8a2d39d7e33038282604051610d3f929190611f5a565b60405180910390a15050565b600a81565b60008054906101000a900473ffffffffffffffffffffffffffffffffffffffff1681565b600160009054906101000a900473ffffffffffffffffffffffffffffffffffffffff1681565b610da26115d4565b6000600260008473ffffffffffffffffffffffffffffffffffffffff1673ffffffffffffffffffffffffffffffffffffffff168152602001908152602001600020600085815260200190815260200160002090506040518060a001604052808260030160008060ff168152602001908152602001600020548152602001826003016000600160ff168152602001908152602001600020548152602001826003016000600260ff168152602001908152602001600020548152602001826003016000600360ff168152602001908152602001600020548152602001826003016000600460ff1681526020019081526020016000205481525091505092915050565b600360205282600052604060002060205281600052604060002060205280600052604060002060009250925050508060000160009054906101000a900473ffffffffffffffffffffffffffffffffffffffff16908060000160149054906101000a900460ff16908060000160159054906101000a900460ff16905083565b6000600260008473ffffffffffffffffffffffffffffffffffffffff1673ffffffffffffffffffffffffffffffffffffffff168152602001908152602001600020600083815260200190815260200160002060000160009054906101000a900460ff16905092915050565b61271081565b600080600260008473ffffffffffffffffffffffffffffffffffffffff1673ffffffffffffffffffffffffffffffffffffffff168152602001908152602001600020600085815260200190815260200160002090508060020154600a610ff791906120b6565b8160020154600f61100891906120b6565b60646110149190612101565b61101e9190612172565b91505092915050565b678ac7230489e8000081565b600160149054906101000a900460ff1615611083576040517f08c379a000000000000000000000000000000000000000000000000000000000815260040161107a90611c09565b60405180910390fd5b600460003373ffffffffffffffffffffffffffffffffffffffff1673ffffffffffffffffffffffffffffffffffffffff16815260200190815260200160002060009054906101000a900460ff1661110f576040517f08c379a0000000000000000000000000000000000000000000000000000000008152600401611106906121ef565b60405180910390fd5b600a60ff168260ff1610801561112b5750600a60ff168160ff16105b61116a576040517f08c379a00000000000000000000000000000000000000000000000000000000081526004016111619061225b565b60405180910390fd5b6000600260008573ffffffffffffffffffffffffffffffffffffffff1673ffffffffffffffffffffffffffffffffffffffff168152602001908152602001600020600086815260200190815260200160002090508060000160009054906101000a900460ff1661120f576040517f08c379a0000000000000000000000000000000000000000000000000000000008152600401611206906122c7565b60405180910390fd5b600073ffffffffffffffffffffffffffffffffffffffff166003600087815260200190815260200160002060008560ff1660ff16815260200190815260200160002060008460ff1660ff16815260200190815260200160002060000160009054906101000a900473ffffffffffffffffffffffffffffffffffffffff1673ffffffffffffffffffffffffffffffffffffffff16146112e2576040517f08c379a00000000000000000000000000000000000000000000000000000000081526004016112d990612333565b60405180910390fd5b60006112ee8686610f91565b905060005b60058160ff1610156113a257818360030160008360ff1660ff16815260200190815260200160002054101561135d576040517f08c379a00000000000000000000000000000000000000000000000000000000081526004016113549061239f565b60405180910390fd5b818360030160008360ff1660ff168152602001908152602001600020600082825461138891906123bf565b92505081905550808061139a90611d9c565b9150506112f3565b5060405180606001604052808673ffffffffffffffffffffffffffffffffffffffff1681526020018560ff1681526020018460ff168152506003600088815260200190815260200160002060008660ff1660ff16815260200190815260200160002060008560ff1660ff16815260200190815260200160002060008201518160000160006101000a81548173ffffffffffffffffffffffffffffffffffffffff021916908373ffffffffffffffffffffffffffffffffffffffff16021790555060208201518160000160146101000a81548160ff021916908360ff16021790555060408201518160000160156101000a81548160ff021916908360ff1602179055509050508160020160008154809291906114bc90611ee3565b9190505550858573ffffffffffffffffffffffffffffffffffffffff167fe6d856ee0a4e26b7e7aa306be320b1ec64b2d1c144caa7c230a6462beb0c516686868560405161150c939291906123f3565b60405180910390a3505050505050565b60006003600085815260200190815260200160002060008460ff1660ff16815260200190815260200160002060008360ff1660ff16815260200190815260200160002060000160009054906101000a900473ffffffffffffffffffffffffffffffffffffffff1690509392505050565b606481565b60046020528060005260406000206000915054906101000a900460ff1681565b60405180610c800160405280606490602082028036833780820191505090505090565b6040518060a00160405280600590602082028036833780820191505090505090565b600080fd5b600073ffffffffffffffffffffffffffffffffffffffff82169050919050565b6000611626826115fb565b9050919050565b6116368161161b565b811461164157600080fd5b50565b6000813590506116538161162d565b92915050565b60006020828403121561166f5761166e6115f6565b5b600061167d84828501611644565b91505092915050565b6000819050919050565b61169981611686565b81146116a457600080fd5b50565b6000813590506116b681611690565b92915050565b6000602082840312156116d2576116d16115f6565b5b60006116e0848285016116a7565b91505092915050565b600060649050919050565b600081905092915050565b6000819050919050565b6117128161161b565b82525050565b60006117248383611709565b60208301905092915050565b6000602082019050919050565b611746816116e9565b61175081846116f4565b925061175b826116ff565b8060005b8381101561178c5781516117738782611718565b965061177e83611730565b92505060018101905061175f565b505050505050565b6000610c80820190506117aa600083018461173d565b92915050565b60008115159050919050565b6117c5816117b0565b82525050565b60006020820190506117e060008301846117bc565b92915050565b6117ef816117b0565b81146117fa57600080fd5b50565b60008135905061180c816117e6565b92915050565b60008060408385031215611829576118286115f6565b5b600061183785828601611644565b9250506020611848858286016117fd565b9150509250929050565b600060ff82169050919050565b61186881611852565b82525050565b6000602082019050611883600083018461185f565b92915050565b6118928161161b565b82525050565b60006020820190506118ad6000830184611889565b92915050565b600080604083850312156118ca576118c96115f6565b5b60006118d8858286016116a7565b92505060206118e985828601611644565b9150509250929050565b600060059050919050565b600081905092915050565b6000819050919050565b61191c81611686565b82525050565b600061192e8383611913565b60208301905092915050565b6000602082019050919050565b611950816118f3565b61195a81846118fe565b925061196582611909565b8060005b8381101561199657815161197d8782611922565b96506119888361193a565b925050600181019050611969565b505050505050565b600060a0820190506119b36000830184611947565b92915050565b6119c281611852565b81146119cd57600080fd5b50565b6000813590506119df816119b9565b92915050565b6000806000606084860312156119fe576119fd6115f6565b5b6000611a0c868287016116a7565b9350506020611a1d868287016119d0565b9250506040611a2e868287016119d0565b9150509250925092565b6000606082019050611a4d6000830186611889565b611a5a602083018561185f565b611a67604083018461185f565b949350505050565b60008060408385031215611a8657611a856115f6565b5b6000611a9485828601611644565b9250506020611aa5858286016116a7565b9150509250929050565b611ab881611686565b82525050565b6000602082019050611ad36000830184611aaf565b92915050565b60008060008060808587031215611af357611af26115f6565b5b6000611b01878288016116a7565b9450506020611b1287828801611644565b9350506040611b23878288016119d0565b9250506060611b34878288016119d0565b91505092959194509250565b600082825260208201905092915050565b7f4e6f7420746865206f776e657200000000000000000000000000000000000000600082015250565b6000611b87600d83611b40565b9150611b9282611b51565b602082019050919050565b60006020820190508181036000830152611bb681611b7a565b9050919050565b7f47616d6520697320706175736564000000000000000000000000000000000000600082015250565b6000611bf3600e83611b40565b9150611bfe82611bbd565b602082019050919050565b60006020820190508181036000830152611c2281611be6565b9050919050565b7f496e76616c696420776f726c6400000000000000000000000000000000000000600082015250565b6000611c5f600d83611b40565b9150611c6a82611c29565b602082019050919050565b60006020820190508181036000830152611c8e81611c52565b9050919050565b7f416c7265616479206a6f696e6564000000000000000000000000000000000000600082015250565b6000611ccb600e83611b40565b9150611cd682611c95565b602082019050919050565b60006020820190508181036000830152611cfa81611cbe565b9050919050565b7f4d757374207061792031302074485944524120746f206a6f696e000000000000600082015250565b6000611d37601a83611b40565b9150611d4282611d01565b602082019050919050565b60006020820190508181036000830152611d6681611d2a565b9050919050565b7f4e487b7100000000000000000000000000000000000000000000000000000000600052601160045260246000fd5b6000611da782611852565b915060ff8203611dba57611db9611d6d565b5b600182019050919050565b7f4e6f2066756e6473000000000000000000000000000000000000000000000000600082015250565b6000611dfb600883611b40565b9150611e0682611dc5565b602082019050919050565b60006020820190508181036000830152611e2a81611dee565b9050919050565b600081905092915050565b50565b6000611e4c600083611e31565b9150611e5782611e3c565b600082019050919050565b6000611e6d82611e3f565b9150819050919050565b7f5769746864726177206661696c65640000000000000000000000000000000000600082015250565b6000611ead600f83611b40565b9150611eb882611e77565b602082019050919050565b60006020820190508181036000830152611edc81611ea0565b9050919050565b6000611eee82611686565b91507fffffffffffffffffffffffffffffffffffffffffffffffffffffffffffffffff8203611f2057611f1f611d6d565b5b600182019050919050565b7f4e487b7100000000000000000000000000000000000000000000000000000000600052603260045260246000fd5b6000604082019050611f6f6000830185611889565b611f7c60208301846117bc565b9392505050565b60008160011c9050919050565b6000808291508390505b6001851115611fda57808604811115611fb657611fb5611d6d565b5b6001851615611fc55780820291505b8081029050611fd385611f83565b9450611f9a565b94509492505050565b600082611ff357600190506120af565b8161200157600090506120af565b8160018114612017576002811461202157612050565b60019150506120af565b60ff84111561203357612032611d6d565b5b8360020a91508482111561204a57612049611d6d565b5b506120af565b5060208310610133831016604e8410600b84101617156120855782820a9050838111156120805761207f611d6d565b5b6120af565b6120928484846001611f90565b925090508184048111156120a9576120a8611d6d565b5b81810290505b9392505050565b60006120c182611686565b91506120cc83611686565b92506120f97fffffffffffffffffffffffffffffffffffffffffffffffffffffffffffffffff8484611fe3565b905092915050565b600061210c82611686565b915061211783611686565b925082820261212581611686565b9150828204841483151761213c5761213b611d6d565b5b5092915050565b7f4e487b7100000000000000000000000000000000000000000000000000000000600052601260045260246000fd5b600061217d82611686565b915061218883611686565b92508261219857612197612143565b5b828204905092915050565b7f4e6f742077686974656c69737465640000000000000000000000000000000000600082015250565b60006121d9600f83611b40565b91506121e4826121a3565b602082019050919050565b60006020820190508181036000830152612208816121cc565b9050919050565b7f496e76616c696420636f6f726473000000000000000000000000000000000000600082015250565b6000612245600e83611b40565b91506122508261220f565b602082019050919050565b6000602082019050818103600083015261227481612238565b9050919050565b7f4e6f7420696e20776f726c640000000000000000000000000000000000000000600082015250565b60006122b1600c83611b40565b91506122bc8261227b565b602082019050919050565b600060208201905081810360008301526122e0816122a4565b9050919050565b7f416c7265616479206f776e656400000000000000000000000000000000000000600082015250565b600061231d600d83611b40565b9150612328826122e7565b602082019050919050565b6000602082019050818103600083015261234c81612310565b9050919050565b7f4e6f7420656e6f756768207265736f7572636573000000000000000000000000600082015250565b6000612389601483611b40565b915061239482612353565b602082019050919050565b600060208201905081810360008301526123b88161237c565b9050919050565b60006123ca82611686565b91506123d583611686565b92508282039050818111156123ed576123ec611d6d565b5b92915050565b6000606082019050612408600083018661185f565b612415602083018561185f565b6124226040830184611aaf565b94935050505056fea2646970667358221220eb825fad4b0e47c4992e1eab44559d76f17838ab78b0a39e0dc9a58bb97ea67a64736f6c63430008140033",
  "linkReferences": {},
  "deployedLinkReferences": {}
}