{
  "_format": "hh-sol-artifact-1",
  "contractName": "PlayerNFT",
  "sourceName": "contracts/PlayerNFT.sol",
  "abi": [
    {
      "inputs": [],
      "stateMutability": "nonpayable",
      "type": "constructor"
    },
    {
      "anonymous": false,
      "inputs": [
        {
          "indexed": true,
          "internalType": "address",
          "name": "owner",
          "type": "address"
        },
        {
          "indexed": true,
          "internalType": "address",
          "name": "approved",
          "type": "address"
        },
        {
          "indexed": true,
          "internalType": "uint256",
          "name": "tokenId",
          "type": "uint256"
        }
      ],
      "name": "Approval",
      "type": "event"
    },
    {
      "anonymous": false,
      "inputs": [
        {
          "indexed": true,
          "internalType": "address",
          "name": "owner",
          "type": "address"
        },
        {
          "indexed": true,
          "internalType": "address",
          "name": "operator",
          "type": "address"
        },
        {
          "indexed": false,
          "internalType": "bool",
          "name": "approved",
          "type": "bool"
        }
      ],
      "name": "ApprovalForAll",
      "type": "event"
    },
    {
      "anonymous": false,
      "inputs": [
        {
          "indexed": false,
          "internalType": "address",
          "name": "caller",
          "type": "address"
        },
        {
          "indexed": false,
          "internalType": "bool",
          "name": "status",
          "type": "bool"
        }
      ],
      "name": "CallerWhitelisted",
      "type": "event"
    },
    {
      "anonymous": false,
      "inputs": [
        {
          "indexed": true,
          "internalType": "address",
          "name": "previousOwner",
          "type": "address"
        },
        {
          "indexed": true,
          "internalType": "address",
          "name": "newOwner",
          "type": "address"
        }
      ],
      "name": "OwnershipTransferred",
      "type": "event"
    },
    {
      "anonymous": false,
      "inputs": [
        {
          "indexed": true,
          "internalType": "address",
          "name": "user",
          "type": "address"
        },
        {
          "indexed": false,
          "internalType": "string",
          "name": "username",
          "type": "string"
        },
        {
          "indexed": false,
          "internalType": "uint256",
          "name": "tokenId",
          "type": "uint256"
        }
      ],
      "name": "PlayerRegistered",
      "type": "event"
    },
    {
      "anonymous": false,
      "inputs": [
        {
          "indexed": true,
          "internalType": "address",
          "name": "from",
          "type": "address"
        },
        {
          "indexed": true,
          "internalType": "address",
          "name": "to",
          "type": "address"
        },
        {
          "indexed": true,
          "internalType": "uint256",
          "name": "tokenId",
          "type": "uint256"
        }
      ],
      "name": "Transfer",
      "type": "event"
    },
    {
      "anonymous": false,
      "inputs": [
        {
          "indexed": true,
          "internalType": "address",
          "name": "user",
          "type": "address"
        },
        {
          "indexed": false,
          "internalType": "uint256",
          "name": "worldId",
          "type": "uint256"
        },
        {
          "indexed": false,
          "internalType": "uint256",
          "name": "plotsOwned",
          "type": "uint256"
        },
        {
          "indexed": false,
          "internalType": "uint256",
          "name": "powerLevel",
          "type": "uint256"
        }
      ],
      "name": "WorldUpdated",
      "type": "event"
    },
    {
      "inputs": [
        {
          "internalType": "address",
          "name": "to",
          "type": "address"
        },
        {
          "internalType": "uint256",
          "name": "tokenId",
          "type": "uint256"
        }
      ],
      "name": "approve",
      "outputs": [],
      "stateMutability": "nonpayable",
      "type": "function"
    },
    {
      "inputs": [
        {
          "internalType": "address",
          "name": "owner",
          "type": "address"
        }
      ],
      "name": "balanceOf",
      "outputs": [
        {
          "internalType": "uint256",
          "name": "",
          "type": "uint256"
        }
      ],
      "stateMutability": "view",
      "type": "function"
    },
    {
      "inputs": [
        {
          "internalType": "uint256",
          "name": "tokenId",
          "type": "uint256"
        }
      ],
      "name": "getApproved",
      "outputs": [
        {
          "internalType": "address",
          "name": "",
          "type": "address"
        }
      ],
      "stateMutability": "view",
      "type": "function"
    },
    {
      "inputs": [
        {
          "internalType": "address",
          "name": "user",
          "type": "address"
        }
      ],
      "name": "getUsername",
      "outputs": [
        {
          "internalType": "string",
          "name": "",
          "type": "string"
        }
      ],
      "stateMutability": "view",
      "type": "function"
    },
    {
      "inputs": [
        {
          "internalType": "address",
          "name": "user",
          "type": "address"
        },
        {
          "internalType": "uint256",
          "name": "worldId",
          "type": "uint256"
        }
      ],
      "name": "getWorldStats",
      "outputs": [
        {
          "components": [
            {
              "internalType": "uint256",
              "name": "joinedAt",
              "type": "uint256"
            },
            {
              "internalType": "uint256",
              "name": "plotsOwned",
              "type": "uint256"
            },
            {
              "internalType": "uint256",
              "name": "powerLevel",
              "type": "uint256"
            }
          ],
          "internalType": "struct PlayerNFT.WorldStats",
          "name": "",
          "type": "tuple"
        }
      ],
      "stateMutability": "view",
      "type": "function"
    },
    {
      "inputs": [
        {
          "internalType": "address",
          "name": "",
          "type": "address"
        }
      ],
      "name": "hasMinted",
      "outputs": [
        {
          "internalType": "bool",
          "name": "",
          "type": "bool"
        }
      ],
      "stateMutability": "view",
      "type": "function"
    },
    {
      "inputs": [
        {
          "internalType": "address",
          "name": "owner",
          "type": "address"
        },
        {
          "internalType": "address",
          "name": "operator",
          "type": "address"
        }
      ],
      "name": "isApprovedForAll",
      "outputs": [
        {
          "internalType": "bool",
          "name": "",
          "type": "bool"
        }
      ],
      "stateMutability": "view",
      "type": "function"
    },
    {
      "inputs": [],
      "name": "name",
      "outputs": [
        {
          "internalType": "string",
          "name": "",
          "type": "string"
        }
      ],
      "stateMutability": "view",
      "type": "function"
    },
    {
      "inputs": [],
      "name": "nextTokenId",
      "outputs": [
        {
          "internalType": "uint256",
          "name": "",
          "type": "uint256"
        }
      ],
      "stateMutability": "view",
      "type": "function"
    },
    {
      "inputs": [],
      "name": "owner",
      "outputs": [
        {
          "internalType": "address",
          "name": "",
          "type": "address"
        }
      ],
      "stateMutability": "view",
      "type": "function"
    },
    {
      "inputs": [
        {
          "internalType": "uint256",
          "name": "tokenId",
          "type": "uint256"
        }
      ],
      "name": "ownerOf",
      "outputs": [
        {
          "internalType": "address",
          "name": "",
          "type": "address"
        }
      ],
      "stateMutability": "view",
      "type": "function"
    },
    {
      "inputs": [
        {
          "internalType": "string",
          "name": "username",
          "type": "string"
        }
      ],
      "name": "registerPlayer",
      "outputs": [],
      "stateMutability": "nonpayable",
      "type": "function"
    },
    {
      "inputs": [],
      "name": "renounceOwnership",
      "outputs": [],
      "stateMutability": "nonpayable",
      "type": "function"
    },
    {
      "inputs": [
        {
          "internalType": "address",
          "name": "",
          "type": "address"
        },
        {
          "internalType": "address",
          "name": "",
          "type": "address"
        },
        {
          "internalType": "uint256",
          "name": "",
          "type": "uint256"
        }
      ],
      "name": "safeTransferFrom",
      "outputs": [],
      "stateMutability": "pure",
      "type": "function"
    },
    {
      "inputs": [
        {
          "internalType": "address",
          "name": "",
          "type": "address"
        },
        {
          "internalType": "address",
          "name": "",
          "type": "address"
        },
        {
          "internalType": "uint256",
          "name": "",
          "type": "uint256"
        },
        {
          "internalType": "bytes",
          "name": "",
          "type": "bytes"
        }
      ],
      "name": "safeTransferFrom",
      "outputs": [],
      "stateMutability": "pure",
      "type": "function"
    },
    {
      "inputs": [
        {
          "internalType": "address",
          "name": "operator",
          "type": "address"
        },
        {
          "internalType": "bool",
          "name": "approved",
          "type": "bool"
        }
      ],
      "name": "setApprovalForAll",
      "outputs": [],
      "stateMutability": "nonpayable",
      "type": "function"
    },
    {
      "inputs": [
        {
          "internalType": "address",
          "name": "caller",
          "type": "address"
        },
        {
          "internalType": "bool",
          "name": "approved",
          "type": "bool"
        }
      ],
      "name": "setWhitelistedCaller",
      "outputs": [],
      "stateMutability": "nonpayable",
      "type": "function"
    },
    {
      "inputs": [
        {
          "internalType": "bytes4",
          "name": "interfaceId",
          "type": "bytes4"
        }
      ],
      "name": "supportsInterface",
      "outputs": [
        {
          "internalType": "bool",
          "name": "",
          "type": "bool"
        }
      ],
      "stateMutability": "view",
      "type": "function"
    },
    {
      "inputs": [],
      "name": "symbol",
      "outputs": [
        {
          "internalType": "string",
          "name": "",
          "type": "string"
        }
      ],
      "stateMutability": "view",
      "type": "function"
    },
    {
      "inputs": [
        {
          "internalType": "uint256",
          "name": "tokenId",
          "type": "uint256"
        }
      ],
      "name": "tokenURI",
      "outputs": [
        {
          "internalType": "string",
          "name": "",
          "type": "string"
        }
      ],
      "stateMutability": "view",
      "type": "function"
    },
    {
      "inputs": [
        {
          "internalType": "address",
          "name": "",
          "type": "address"
        },
        {
          "internalType": "address",
          "name": "",
          "type": "address"
        },
        {
          "internalType": "uint256",
          "name": "",
          "type": "uint256"
        }
      ],
      "name": "transferFrom",
      "outputs": [],
      "stateMutability": "pure",
      "type": "function"
    },
    {
      "inputs": [
        {
          "internalType": "address",
          "name": "newOwner",
          "type": "address"
        }
      ],
      "name": "transferOwnership",
      "outputs": [],
      "stateMutability": "nonpayable",
      "type": "function"
    },
    {
      "inputs": [
        {
          "internalType": "address",
          "name": "user",
          "type": "address"
        },
        {
          "internalType": "uint256",
          "name": "worldId",
          "type": "uint256"
        },
        {
          "internalType": "uint256",
          "name": "plotsOwned",
          "type": "uint256"
        },
        {
          "internalType": "uint256",
          "name": "powerLevel",
          "type": "uint256"
        }
      ],
      "name": "updateWorldStats",
      "outputs": [],
      "stateMutability": "nonpayable",
      "type": "function"
    },
    {
      "inputs": [
        {
          "internalType": "address",
          "name": "",
          "type": "address"
        }
      ],
      "name": "whitelistedCallers",
      "outputs": [
        {
          "internalType": "bool",
          "name": "",
          "type": "bool"
        }
      ],
      "stateMutability": "view",
      "type": "function"
    }
  ],
  "bytecode": "0x60806040526001600a553480156200001657600080fd5b506040518060400160405280600981526020017f506c617965724e465400000000000000000000000000000000000000000000008152506040518060400160405280600581526020017f504c4e4654000000000000000000000000000000000000000000000000000000815250816000908162000094919062000417565b508060019081620000a6919062000417565b505050620000c9620000bd620000cf60201b60201c565b620000d760201b60201c565b620004fe565b600033905090565b6000600760009054906101000a900473ffffffffffffffffffffffffffffffffffffffff16905081600760006101000a81548173ffffffffffffffffffffffffffffffffffffffff021916908373ffffffffffffffffffffffffffffffffffffffff1602179055508173ffffffffffffffffffffffffffffffffffffffff168173ffffffffffffffffffffffffffffffffffffffff167f8be0079c531659141344cd1fd0a4f28419497f9722a3daafe3b4186f6b6457e060405160405180910390a35050565b600081519050919050565b7f4e487b7100000000000000000000000000000000000000000000000000000000600052604160045260246000fd5b7f4e487b7100000000000000000000000000000000000000000000000000000000600052602260045260246000fd5b600060028204905060018216806200021f57607f821691505b602082108103620002355762000234620001d7565b5b50919050565b60008190508160005260206000209050919050565b60006020601f8301049050919050565b600082821b905092915050565b6000600883026200029f7fffffffffffffffffffffffffffffffffffffffffffffffffffffffffffffffff8262000260565b620002ab868362000260565b95508019841693508086168417925050509392505050565b6000819050919050565b6000819050919050565b6000620002f8620002f2620002ec84620002c3565b620002cd565b620002c3565b9050919050565b6000819050919050565b6200031483620002d7565b6200032c6200032382620002ff565b8484546200026d565b825550505050565b600090565b6200034362000334565b6200035081848462000309565b505050565b5b8181101562000378576200036c60008262000339565b60018101905062000356565b5050565b601f821115620003c75762000391816200023b565b6200039c8462000250565b81016020851015620003ac578190505b620003c4620003bb8562000250565b83018262000355565b50505b505050565b600082821c905092915050565b6000620003ec60001984600802620003cc565b1980831691505092915050565b6000620004078383620003d9565b9150826002028217905092915050565b62000422826200019d565b67ffffffffffffffff8111156200043e576200043d620001a8565b5b6200044a825462000206565b620004578282856200037c565b600060209050601f8311600181146200048f57600084156200047a578287015190505b620004868582620003f9565b865550620004f6565b601f1984166200049f866200023b565b60005b82811015620004c957848901518255600182019150602085019450602081019050620004a2565b86831015620004e95784890151620004e5601f891682620003d9565b8355505b6001600288020188555050505b505050505050565b613007806200050e6000396000f3fe608060405234801561001057600080fd5b50600436106101585760003560e01c806381905e79116100c3578063c87b56dd1161007c578063c87b56dd146103af578063ce43c032146103df578063e3dde85a1461040f578063e985e9c51461043f578063f2fde38b1461046f578063ffc97ce91461048b57610158565b806381905e79146103035780638da5cb5b1461031f57806395d89b411461033d578063a22cb4651461035b578063b3446f8514610377578063b88d4fde1461039357610158565b806342842e0e1161011557806342842e0e146102435780636146a5031461025f5780636352211e1461027b57806370a08231146102ab578063715018a6146102db57806375794a3c146102e557610158565b806301ffc9a71461015d57806306fdde031461018d578063081812fc146101ab578063095ea7b3146101db57806323b872dd146101f757806338e21cce14610213575b600080fd5b61017760048036038101906101729190611dd2565b6104bb565b6040516101849190611e1a565b60405180910390f35b6101956104cd565b6040516101a29190611ec5565b60405180910390f35b6101c560048036038101906101c09190611f1d565b61055f565b6040516101d29190611f8b565b60405180910390f35b6101f560048036038101906101f09190611fd2565b6105a5565b005b610211600480360381019061020c9190612012565b6106bc565b005b61022d60048036038101906102289190612065565b6106f7565b60405161023a9190611e1a565b60405180910390f35b61025d60048036038101906102589190612012565b610717565b005b610279600480360381019061027491906120be565b610752565b005b61029560048036038101906102909190611f1d565b6107ee565b6040516102a29190611f8b565b60405180910390f35b6102c560048036038101906102c09190612065565b610874565b6040516102d2919061210d565b60405180910390f35b6102e361092b565b005b6102ed61093f565b6040516102fa919061210d565b60405180910390f35b61031d60048036038101906103189190612128565b610945565b005b610327610b26565b6040516103349190611f8b565b60405180910390f35b610345610b50565b6040516103529190611ec5565b60405180910390f35b610375600480360381019061037091906120be565b610be2565b005b610391600480360381019061038c91906122c4565b610bf8565b005b6103ad60048036038101906103a891906123ae565b610d7a565b005b6103c960048036038101906103c49190611f1d565b610db5565b6040516103d69190611ec5565b60405180910390f35b6103f960048036038101906103f49190612065565b610dc7565b6040516104069190611ec5565b60405180910390f35b61042960048036038101906104249190611fd2565b610f09565b6040516104369190612482565b60405180910390f35b6104596004803603810190610454919061249d565b611003565b6040516104669190611e1a565b60405180910390f35b61048960048036038101906104849190612065565b611097565b005b6104a560048036038101906104a09190612065565b61111a565b6040516104b29190611e1a565b60405180910390f35b60006104c68261113a565b9050919050565b6060600080546104dc9061250c565b80601f01602080910402602001604051908101604052809291908181526020018280546105089061250c565b80156105555780601f1061052a57610100808354040283529160200191610555565b820191906000526020600020905b81548152906001019060200180831161053857829003601f168201915b5050505050905090565b600061056a8261121c565b6004600083815260200190815260200160002060009054906101000a900473ffffffffffffffffffffffffffffffffffffffff169050919050565b60006105b0826107ee565b90508073ffffffffffffffffffffffffffffffffffffffff168373ffffffffffffffffffffffffffffffffffffffff1603610620576040517f08c379a0000000000000000000000000000000000000000000000000000000008152600401610617906125af565b60405180910390fd5b8073ffffffffffffffffffffffffffffffffffffffff1661063f611267565b73ffffffffffffffffffffffffffffffffffffffff16148061066e575061066d81610668611267565b611003565b5b6106ad576040517f08c379a00000000000000000000000000000000000000000000000000000000081526004016106a490612641565b60405180910390fd5b6106b7838361126f565b505050565b6040517f08c379a00000000000000000000000000000000000000000000000000000000081526004016106ee906126ad565b60405180910390fd5b60086020528060005260406000206000915054906101000a900460ff1681565b6040517f08c379a0000000000000000000000000000000000000000000000000000000008152600401610749906126ad565b60405180910390fd5b61075a611328565b80600b60008473ffffffffffffffffffffffffffffffffffffffff1673ffffffffffffffffffffffffffffffffffffffff16815260200190815260200160002060006101000a81548160ff0219169083151502179055507f072c1e7157cac1da7b47baec2032fb5468254f38c4e6d40222c8a2d39d7e330382826040516107e29291906126cd565b60405180910390a15050565b6000806107fa836113a6565b9050600073ffffffffffffffffffffffffffffffffffffffff168173ffffffffffffffffffffffffffffffffffffffff160361086b576040517f08c379a000000000000000000000000000000000000000000000000000000000815260040161086290612742565b60405180910390fd5b80915050919050565b60008073ffffffffffffffffffffffffffffffffffffffff168273ffffffffffffffffffffffffffffffffffffffff16036108e4576040517f08c379a00000000000000000000000000000000000000000000000000000000081526004016108db906127d4565b60405180910390fd5b600360008373ffffffffffffffffffffffffffffffffffffffff1673ffffffffffffffffffffffffffffffffffffffff168152602001908152602001600020549050919050565b610933611328565b61093d60006113e3565b565b600a5481565b600b60003373ffffffffffffffffffffffffffffffffffffffff1673ffffffffffffffffffffffffffffffffffffffff16815260200190815260200160002060009054906101000a900460ff166109d1576040517f08c379a00000000000000000000000000000000000000000000000000000000081526004016109c890612840565b60405180910390fd5b600860008573ffffffffffffffffffffffffffffffffffffffff1673ffffffffffffffffffffffffffffffffffffffff16815260200190815260200160002060009054906101000a900460ff16610a5d576040517f08c379a0000000000000000000000000000000000000000000000000000000008152600401610a54906128ac565b60405180910390fd5b6000610a68856114a9565b90506040518060600160405280428152602001848152602001838152506009600083815260200190815260200160002060010160008681526020019081526020016000206000820151816000015560208201518160010155604082015181600201559050508473ffffffffffffffffffffffffffffffffffffffff167fdf43b809ee74772420402f8fdcc057bed87bcc96371f271dfb3bf08ef41637a3858585604051610b17939291906128cc565b60405180910390a25050505050565b6000600760009054906101000a900473ffffffffffffffffffffffffffffffffffffffff16905090565b606060018054610b5f9061250c565b80601f0160208091040260200160405190810160405280929190818152602001828054610b8b9061250c565b8015610bd85780601f10610bad57610100808354040283529160200191610bd8565b820191906000526020600020905b815481529060010190602001808311610bbb57829003601f168201915b5050505050905090565b610bf4610bed611267565b8383611553565b5050565b600860003373ffffffffffffffffffffffffffffffffffffffff1673ffffffffffffffffffffffffffffffffffffffff16815260200190815260200160002060009054906101000a900460ff1615610c85576040517f08c379a0000000000000000000000000000000000000000000000000000000008152600401610c7c9061294f565b60405180910390fd5b6000600a6000815480929190610c9a9061299e565b919050559050610caa33826116bf565b81600960008381526020019081526020016000206000019081610ccd9190612b92565b506001600860003373ffffffffffffffffffffffffffffffffffffffff1673ffffffffffffffffffffffffffffffffffffffff16815260200190815260200160002060006101000a81548160ff0219169083151502179055503373ffffffffffffffffffffffffffffffffffffffff167fe63e76a936e766d00cc7c8c48c4e7a7b2fe9a32cc8b4668a449ddac9ca429ed48383604051610d6e929190612c64565b60405180910390a25050565b6040517f08c379a0000000000000000000000000000000000000000000000000000000008152600401610dac906126ad565b60405180910390fd5b6060610dc0826118dc565b9050919050565b6060600860008373ffffffffffffffffffffffffffffffffffffffff1673ffffffffffffffffffffffffffffffffffffffff16815260200190815260200160002060009054906101000a900460ff16610e55576040517f08c379a0000000000000000000000000000000000000000000000000000000008152600401610e4c906128ac565b60405180910390fd5b6000610e60836114a9565b9050600960008281526020019081526020016000206000018054610e839061250c565b80601f0160208091040260200160405190810160405280929190818152602001828054610eaf9061250c565b8015610efc5780601f10610ed157610100808354040283529160200191610efc565b820191906000526020600020905b815481529060010190602001808311610edf57829003601f168201915b5050505050915050919050565b610f11611d45565b600860008473ffffffffffffffffffffffffffffffffffffffff1673ffffffffffffffffffffffffffffffffffffffff16815260200190815260200160002060009054906101000a900460ff16610f9d576040517f08c379a0000000000000000000000000000000000000000000000000000000008152600401610f94906128ac565b60405180910390fd5b6000610fa8846114a9565b9050600960008281526020019081526020016000206001016000848152602001908152602001600020604051806060016040529081600082015481526020016001820154815260200160028201548152505091505092915050565b6000600560008473ffffffffffffffffffffffffffffffffffffffff1673ffffffffffffffffffffffffffffffffffffffff16815260200190815260200160002060008373ffffffffffffffffffffffffffffffffffffffff1673ffffffffffffffffffffffffffffffffffffffff16815260200190815260200160002060009054906101000a900460ff16905092915050565b61109f611328565b600073ffffffffffffffffffffffffffffffffffffffff168173ffffffffffffffffffffffffffffffffffffffff160361110e576040517f08c379a000000000000000000000000000000000000000000000000000000000815260040161110590612d06565b60405180910390fd5b611117816113e3565b50565b600b6020528060005260406000206000915054906101000a900460ff1681565b60007f80ac58cd000000000000000000000000000000000000000000000000000000007bffffffffffffffffffffffffffffffffffffffffffffffffffffffff1916827bffffffffffffffffffffffffffffffffffffffffffffffffffffffff1916148061120557507f5b5e139f000000000000000000000000000000000000000000000000000000007bffffffffffffffffffffffffffffffffffffffffffffffffffffffff1916827bffffffffffffffffffffffffffffffffffffffffffffffffffffffff1916145b806112155750611214826119ee565b5b9050919050565b61122581611a58565b611264576040517f08c379a000000000000000000000000000000000000000000000000000000000815260040161125b90612742565b60405180910390fd5b50565b600033905090565b816004600083815260200190815260200160002060006101000a81548173ffffffffffffffffffffffffffffffffffffffff021916908373ffffffffffffffffffffffffffffffffffffffff160217905550808273ffffffffffffffffffffffffffffffffffffffff166112e2836107ee565b73ffffffffffffffffffffffffffffffffffffffff167f8c5be1e5ebec7d5bd14f71427d1e84f3dd0314c0f7b2291e5b200ac8c7c3b92560405160405180910390a45050565b611330611267565b73ffffffffffffffffffffffffffffffffffffffff1661134e610b26565b73ffffffffffffffffffffffffffffffffffffffff16146113a4576040517f08c379a000000000000000000000000000000000000000000000000000000000815260040161139b90612d72565b60405180910390fd5b565b60006002600083815260200190815260200160002060009054906101000a900473ffffffffffffffffffffffffffffffffffffffff169050919050565b6000600760009054906101000a900473ffffffffffffffffffffffffffffffffffffffff16905081600760006101000a81548173ffffffffffffffffffffffffffffffffffffffff021916908373ffffffffffffffffffffffffffffffffffffffff1602179055508173ffffffffffffffffffffffffffffffffffffffff168173ffffffffffffffffffffffffffffffffffffffff167f8be0079c531659141344cd1fd0a4f28419497f9722a3daafe3b4186f6b6457e060405160405180910390a35050565b600080600190505b600a54811015611512578273ffffffffffffffffffffffffffffffffffffffff166114db826107ee565b73ffffffffffffffffffffffffffffffffffffffff16036114ff578091505061154e565b808061150a9061299e565b9150506114b1565b506040517f08c379a000000000000000000000000000000000000000000000000000000000815260040161154590612dde565b60405180910390fd5b919050565b8173ffffffffffffffffffffffffffffffffffffffff168373ffffffffffffffffffffffffffffffffffffffff16036115c1576040517f08c379a00000000000000000000000000000000000000000000000000000000081526004016115b890612e4a565b60405180910390fd5b80600560008573ffffffffffffffffffffffffffffffffffffffff1673ffffffffffffffffffffffffffffffffffffffff16815260200190815260200160002060008473ffffffffffffffffffffffffffffffffffffffff1673ffffffffffffffffffffffffffffffffffffffff16815260200190815260200160002060006101000a81548160ff0219169083151502179055508173ffffffffffffffffffffffffffffffffffffffff168373ffffffffffffffffffffffffffffffffffffffff167f17307eab39ab6107e8899845ad3d59bd9653f200f220920489ca2b5937696c31836040516116b29190611e1a565b60405180910390a3505050565b600073ffffffffffffffffffffffffffffffffffffffff168273ffffffffffffffffffffffffffffffffffffffff160361172e576040517f08c379a000000000000000000000000000000000000000000000000000000000815260040161172590612eb6565b60405180910390fd5b61173781611a58565b15611777576040517f08c379a000000000000000000000000000000000000000000000000000000000815260040161176e90612f22565b60405180910390fd5b611785600083836001611a99565b61178e81611a58565b156117ce576040517f08c379a00000000000000000000000000000000000000000000000000000000081526004016117c590612f22565b60405180910390fd5b6001600360008473ffffffffffffffffffffffffffffffffffffffff1673ffffffffffffffffffffffffffffffffffffffff16815260200190815260200160002060008282540192505081905550816002600083815260200190815260200160002060006101000a81548173ffffffffffffffffffffffffffffffffffffffff021916908373ffffffffffffffffffffffffffffffffffffffff160217905550808273ffffffffffffffffffffffffffffffffffffffff16600073ffffffffffffffffffffffffffffffffffffffff167fddf252ad1be2c89b69c2b068fc378daa952ba7f163c4a11628f55a4df523b3ef60405160405180910390a46118d8600083836001611a9f565b5050565b60606118e78261121c565b60006006600084815260200190815260200160002080546119079061250c565b80601f01602080910402602001604051908101604052809291908181526020018280546119339061250c565b80156119805780601f1061195557610100808354040283529160200191611980565b820191906000526020600020905b81548152906001019060200180831161196357829003601f168201915b505050505090506000611991611aa5565b905060008151036119a65781925050506119e9565b6000825111156119db5780826040516020016119c3929190612f7e565b604051602081830303815290604052925050506119e9565b6119e484611abc565b925050505b919050565b60007f01ffc9a7000000000000000000000000000000000000000000000000000000007bffffffffffffffffffffffffffffffffffffffffffffffffffffffff1916827bffffffffffffffffffffffffffffffffffffffffffffffffffffffff1916149050919050565b60008073ffffffffffffffffffffffffffffffffffffffff16611a7a836113a6565b73ffffffffffffffffffffffffffffffffffffffff1614159050919050565b50505050565b50505050565b606060405180602001604052806000815250905090565b6060611ac78261121c565b6000611ad1611aa5565b90506000815111611af15760405180602001604052806000815250611b1c565b80611afb84611b24565b604051602001611b0c929190612f7e565b6040516020818303038152906040525b915050919050565b606060006001611b3384611bf2565b01905060008167ffffffffffffffff811115611b5257611b51612199565b5b6040519080825280601f01601f191660200182016040528015611b845781602001600182028036833780820191505090505b509050600082602001820190505b600115611be7578080600190039150507f3031323334353637383961626364656600000000000000000000000000000000600a86061a8153600a8581611bdb57611bda612fa2565b5b04945060008503611b92575b819350505050919050565b600080600090507a184f03e93ff9f4daa797ed6e38ed64bf6a1f0100000000000000008310611c50577a184f03e93ff9f4daa797ed6e38ed64bf6a1f0100000000000000008381611c4657611c45612fa2565b5b0492506040810190505b6d04ee2d6d415b85acef81000000008310611c8d576d04ee2d6d415b85acef81000000008381611c8357611c82612fa2565b5b0492506020810190505b662386f26fc100008310611cbc57662386f26fc100008381611cb257611cb1612fa2565b5b0492506010810190505b6305f5e1008310611ce5576305f5e1008381611cdb57611cda612fa2565b5b0492506008810190505b6127108310611d0a576127108381611d0057611cff612fa2565b5b0492506004810190505b60648310611d2d5760648381611d2357611d22612fa2565b5b0492506002810190505b600a8310611d3c576001810190505b80915050919050565b60405180606001604052806000815260200160008152602001600081525090565b6000604051905090565b600080fd5b600080fd5b60007fffffffff0000000000000000000000000000000000000000000000000000000082169050919050565b611daf81611d7a565b8114611dba57600080fd5b50565b600081359050611dcc81611da6565b92915050565b600060208284031215611de857611de7611d70565b5b6000611df684828501611dbd565b91505092915050565b60008115159050919050565b611e1481611dff565b82525050565b6000602082019050611e2f6000830184611e0b565b92915050565b600081519050919050565b600082825260208201905092915050565b60005b83811015611e6f578082015181840152602081019050611e54565b60008484015250505050565b6000601f19601f8301169050919050565b6000611e9782611e35565b611ea18185611e40565b9350611eb1818560208601611e51565b611eba81611e7b565b840191505092915050565b60006020820190508181036000830152611edf8184611e8c565b905092915050565b6000819050919050565b611efa81611ee7565b8114611f0557600080fd5b50565b600081359050611f1781611ef1565b92915050565b600060208284031215611f3357611f32611d70565b5b6000611f4184828501611f08565b91505092915050565b600073ffffffffffffffffffffffffffffffffffffffff82169050919050565b6000611f7582611f4a565b9050919050565b611f8581611f6a565b82525050565b6000602082019050611fa06000830184611f7c565b92915050565b611faf81611f6a565b8114611fba57600080fd5b50565b600081359050611fcc81611fa6565b92915050565b60008060408385031215611fe957611fe8611d70565b5b6000611ff785828601611fbd565b925050602061200885828601611f08565b9150509250929050565b60008060006060848603121561202b5761202a611d70565b5b600061203986828701611fbd565b935050602061204a86828701611fbd565b925050604061205b86828701611f08565b9150509250925092565b60006020828403121561207b5761207a611d70565b5b600061208984828501611fbd565b91505092915050565b61209b81611dff565b81146120a657600080fd5b50565b6000813590506120b881612092565b92915050565b600080604083850312156120d5576120d4611d70565b5b60006120e385828601611fbd565b92505060206120f4858286016120a9565b9150509250929050565b61210781611ee7565b82525050565b600060208201905061212260008301846120fe565b92915050565b6000806000806080858703121561214257612141611d70565b5b600061215087828801611fbd565b945050602061216187828801611f08565b935050604061217287828801611f08565b925050606061218387828801611f08565b91505092959194509250565b600080fd5b600080fd5b7f4e487b7100000000000000000000000000000000000000000000000000000000600052604160045260246000fd5b6121d182611e7b565b810181811067ffffffffffffffff821117156121f0576121ef612199565b5b80604052505050565b6000612203611d66565b905061220f82826121c8565b919050565b600067ffffffffffffffff82111561222f5761222e612199565b5b61223882611e7b565b9050602081019050919050565b82818337600083830152505050565b600061226761226284612214565b6121f9565b90508281526020810184848401111561228357612282612194565b5b61228e848285612245565b509392505050565b600082601f8301126122ab576122aa61218f565b5b81356122bb848260208601612254565b91505092915050565b6000602082840312156122da576122d9611d70565b5b600082013567ffffffffffffffff8111156122f8576122f7611d75565b5b61230484828501612296565b91505092915050565b600067ffffffffffffffff82111561232857612327612199565b5b61233182611e7b565b9050602081019050919050565b600061235161234c8461230d565b6121f9565b90508281526020810184848401111561236d5761236c612194565b5b612378848285612245565b509392505050565b600082601f8301126123955761239461218f565b5b81356123a584826020860161233e565b91505092915050565b600080600080608085870312156123c8576123c7611d70565b5b60006123d687828801611fbd565b94505060206123e787828801611fbd565b93505060406123f887828801611f08565b925050606085013567ffffffffffffffff81111561241957612418611d75565b5b61242587828801612380565b91505092959194509250565b61243a81611ee7565b82525050565b6060820160008201516124566000850182612431565b5060208201516124696020850182612431565b50604082015161247c6040850182612431565b50505050565b60006060820190506124976000830184612440565b92915050565b600080604083850312156124b4576124b3611d70565b5b60006124c285828601611fbd565b92505060206124d385828601611fbd565b9150509250929050565b7f4e487b7100000000000000000000000000000000000000000000000000000000600052602260045260246000fd5b6000600282049050600182168061252457607f821691505b602082108103612537576125366124dd565b5b50919050565b7f4552433732313a20617070726f76616c20746f2063757272656e74206f776e6560008201527f7200000000000000000000000000000000000000000000000000000000000000602082015250565b6000612599602183611e40565b91506125a48261253d565b604082019050919050565b600060208201905081810360008301526125c88161258c565b9050919050565b7f4552433732313a20617070726f76652063616c6c6572206973206e6f7420746f60008201527f6b656e206f776e6572206f7220617070726f76656420666f7220616c6c000000602082015250565b600061262b603d83611e40565b9150612636826125cf565b604082019050919050565b6000602082019050818103600083015261265a8161261e565b9050919050565b7f5472616e73666572732064697361626c65640000000000000000000000000000600082015250565b6000612697601283611e40565b91506126a282612661565b602082019050919050565b600060208201905081810360008301526126c68161268a565b9050919050565b60006040820190506126e26000830185611f7c565b6126ef6020830184611e0b565b9392505050565b7f4552433732313a20696e76616c696420746f6b656e2049440000000000000000600082015250565b600061272c601883611e40565b9150612737826126f6565b602082019050919050565b6000602082019050818103600083015261275b8161271f565b9050919050565b7f4552433732313a2061646472657373207a65726f206973206e6f74206120766160008201527f6c6964206f776e65720000000000000000000000000000000000000000000000602082015250565b60006127be602983611e40565b91506127c982612762565b604082019050919050565b600060208201905081810360008301526127ed816127b1565b9050919050565b7f43616c6c6572206e6f742077686974656c697374656400000000000000000000600082015250565b600061282a601683611e40565b9150612835826127f4565b602082019050919050565b600060208201905081810360008301526128598161281d565b9050919050565b7f4e6f742072656769737465726564000000000000000000000000000000000000600082015250565b6000612896600e83611e40565b91506128a182612860565b602082019050919050565b600060208201905081810360008301526128c581612889565b9050919050565b60006060820190506128e160008301866120fe565b6128ee60208301856120fe565b6128fb60408301846120fe565b949350505050565b7f416c726561647920726567697374657265640000000000000000000000000000600082015250565b6000612939601283611e40565b915061294482612903565b602082019050919050565b600060208201905081810360008301526129688161292c565b9050919050565b7f4e487b7100000000000000000000000000000000000000000000000000000000600052601160045260246000fd5b60006129a982611ee7565b91507fffffffffffffffffffffffffffffffffffffffffffffffffffffffffffffffff82036129db576129da61296f565b5b600182019050919050565b60008190508160005260206000209050919050565b60006020601f8301049050919050565b600082821b905092915050565b600060088302612a487fffffffffffffffffffffffffffffffffffffffffffffffffffffffffffffffff82612a0b565b612a528683612a0b565b95508019841693508086168417925050509392505050565b6000819050919050565b6000612a8f612a8a612a8584611ee7565b612a6a565b611ee7565b9050919050565b6000819050919050565b612aa983612a74565b612abd612ab582612a96565b848454612a18565b825550505050565b600090565b612ad2612ac5565b612add818484612aa0565b505050565b5b81811015612b0157612af6600082612aca565b600181019050612ae3565b5050565b601f821115612b4657612b17816129e6565b612b20846129fb565b81016020851015612b2f578190505b612b43612b3b856129fb565b830182612ae2565b50505b505050565b600082821c905092915050565b6000612b6960001984600802612b4b565b1980831691505092915050565b6000612b828383612b58565b9150826002028217905092915050565b612b9b82611e35565b67ffffffffffffffff811115612bb457612bb3612199565b5b612bbe825461250c565b612bc9828285612b05565b600060209050601f831160018114612bfc5760008415612bea578287015190505b612bf48582612b76565b865550612c5c565b601f198416612c0a866129e6565b60005b82811015612c3257848901518255600182019150602085019450602081019050612c0d565b86831015612c4f5784890151612c4b601f891682612b58565b8355505b6001600288020188555050505b505050505050565b60006040820190508181036000830152612c7e8185611e8c565b9050612c8d60208301846120fe565b9392505050565b7f4f776e61626c653a206e6577206f776e657220697320746865207a65726f206160008201527f6464726573730000000000000000000000000000000000000000000000000000602082015250565b6000612cf0602683611e40565b9150612cfb82612c94565b604082019050919050565b60006020820190508181036000830152612d1f81612ce3565b9050919050565b7f4f776e61626c653a2063616c6c6572206973206e6f7420746865206f776e6572600082015250565b6000612d5c602083611e40565b9150612d6782612d26565b602082019050919050565b60006020820190508181036000830152612d8b81612d4f565b9050919050565b7f546f6b656e206e6f7420666f756e640000000000000000000000000000000000600082015250565b6000612dc8600f83611e40565b9150612dd382612d92565b602082019050919050565b60006020820190508181036000830152612df781612dbb565b9050919050565b7f4552433732313a20617070726f766520746f2063616c6c657200000000000000600082015250565b6000612e34601983611e40565b9150612e3f82612dfe565b602082019050919050565b60006020820190508181036000830152612e6381612e27565b9050919050565b7f4552433732313a206d696e7420746f20746865207a65726f2061646472657373600082015250565b6000612ea0602083611e40565b9150612eab82612e6a565b602082019050919050565b60006020820190508181036000830152612ecf81612e93565b9050919050565b7f4552433732313a20746f6b656e20616c7265616479206d696e74656400000000600082015250565b6000612f0c601c83611e40565b9150612f1782612ed6565b602082019050919050565b60006020820190508181036000830152612f3b81612eff565b9050919050565b600081905092915050565b6000612f5882611e35565b612f628185612f42565b9350612f72818560208601611e51565b80840191505092915050565b6000612f8a8285612f4d565b9150612f968284612f4d565b91508190509392505050565b7f4e487b7100000000000000000000000000000000000000000000000000000000600052601260045260246000fdfea2646970667358221220b9437dda39ccc698f5e2623f0245451e5e8d18c29ce4e531ec4f1d6172896ccb64736f6c63430008140033",
  "linkReferences": {},
  "deployedLinkReferences": {}
}